:020000041000EA
:1000000000B5324B212058609868022188439860DF
:10001000D860186158612E4B002199600221596106
:100020000121F02299502B49196001219960352056
:1000300000F044F80222904214D00621196600F024
:1000400034F8196E01211966002018661A6600F04E
:100050002CF8196E196E196E052000F02FF8012189
:100060000842F9D1002199601B49196000215960AB
:100070001A491B48016001219960EB211966A021F2
:10008000196600F012F800219960164914480160C1
:100090000121996001BC002800D000471248134993
:1000A000086003C880F30888084703B5996A0420EC
:1000B0000142FBD001200142F8D103BD02B5186610
:1000C0001866FFF7F2FF186E186E02BD00000240BE
:1000D000000000180000070000035F00212200005C
:1000E000F4000018222000A00001001008ED00E03C
:1000F00000000000000000000000000074B24E7A12
:1001000000200420F7010010C3010010C5010010F9
:10011000C1010010C1010010C1010010C101001097
:10012000C1010010C1010010C1010010C701001081
:10013000C1010010C1010010C9010010CB01001065
:10014000CD010010CD010010CD010010CD01001037
:10015000CD010010CD010010CD010010CD01001027
:10016000CD010010CD010010CD010010CD01001017
:10017000CD010010CD010010CD010010CD01001007
:10018000CD010010CD010010CD010010CD010010F7
:10019000CD010010CD010010CD010010CD010010E7
:1001A000CD010010CD010010CD010010CD010010D7
:1001B000CD010010CD010010CD010010CD010010C7
:1001C00000BE00BE00BE00BE00BE00BEEFF3058054
:1001D000103800BEF2EB8871F00B01101C0C0110FE
:1001E0003402001090A31AE700201F49086006C8D7
:1001F00081F3088810471D48006800282FD10DA4FE
:100200000ECC002902D000F012F8F9E71849194A7B
:10021000002000E001C19142FCD1174988471749ED
:1002200088471749884700BEFDE701C901C29A42C5
:10023000FBD370471C0C0110C0000020A814002044
:1002400004200110000004200000042004200110FC
:10025000001004200010042000000000704709482E
:1002600008F0EEFC0047000008ED00E0000000D0C0
:10027000C8140020202F0020C9790010FD060010AE
:10028000857900105756000006005250ABB36053FA
:100290007802011006005250861C030288020110E9
:1002A000060052505422A29D9C020110050052509B
:1002B000DE65F46804200110F8B5C04610B5064CA0
:1002C0002378002B07D1054B002B02D0044800E017
:1002D00000BF0123237010BD28170020000000007C
:1002E00030E30010044B10B5002B03D00349044841
:1002F00000E000BF10BDC046000000002C17002029
:1003000030E30010F8B5CE46474680B5112000F026
:10031000FFFB102000F0FCFB122000F0F9FB132083
:1003200000F0F6FB082000F0F3FB0B2000F0F0FBE0
:10033000092000F0EDFB0A2000F0EAFB052000F0A8
:10034000E7FB162000F0E4FB152000F0E1FB0D2098
:1003500000F0DEFB142000F0DBFB192005F04EFB63
:100360001D2005F04BFBD024240680239B046362F0
:1003700080239B0563620421192005F00DFB0421F5
:100380001D2005F009FB374F04233B60364E023336
:100390003360364BFF221A6688215A50344803686E
:1003A0001B0C1B0433490B60326893009B189A00A6
:1003B000314B9C4662441568FF231B0499465D40FF
:1003C0002D0C2D0480235B019C461A4315603A686E
:1003D0009500AD18AA00254B9846424417680125A0
:1003E0002B00BB431F0063461A4317603268960018
:1003F000B618B20042441668B5431A4315601F4A46
:1004000012684B4653401B0C1B041D4A13600368C3
:100410001B0C1B040B609620002106F00BFC1949F5
:1004200019480BF0EBFA0121062005F0B5FA01217D
:10043000072005F0B1FA0121042005F0ADFA1720DC
:1004400005F0DCFA80231B0463626361182005F069
:10045000D5FA80235B0463626361C0BCB946B046D1
:10046000F8BDC046D82A00205424002000000540D2
:100470005C0005405C1005400C0005408400054010
:1004800084100540C0C62D0000C00340F0B5D6461C
:100490004F464646C0B5D02212065468640C01236C
:1004A0001C4061424C4101210C402401057810267A
:1004B000B446B5432C4304705468240C1C40654278
:1004C0006C410C40640105781036B5432C43047030
:1004D0005468A40C1C4065426C410C40A401057892
:1004E0002036B5432C4304705468E40C1C4065422C
:1004F0006C41E40106787F2535402C430470546834
:10050000240A1C4065426C410C40A4000578042676
:10051000B146B5432C4304705468E40A1C4065425C
:100520006C410C40E40006780825AE433443047067
:100530005468A40A1C40664274410C40640006786A
:10054000B04602264746B7433C4304705468640AE9
:100550001C4027007C427C410C4007789F433C4371
:100560000470546864091C4027007C427C410C40A4
:100570002401A24647786446A7433C0057462743D8
:1005800047705468240D1C4027007C427C410C407D
:10059000A400A04647784C46A74344463C434470D9
:1005A0005468640B1C4067427C410C4047789F4371
:1005B0003C4344705468A40D1C4067427C410C408D
:1005C00064004778B7433C4344705268520D13406F
:1005D0005A4253410B40DB00E2B2AA43134343703B
:1005E000E0BCBA46B146A846F0BD0000F0B5D6461C
:1005F0004F464646C0B584B0040003AF3B4B1A8853
:100600003A800023BB7002AE3280B37001AD2A8005
:10061000AB7069460A808B70D0231B0698468023F6
:100620001B04994643464A469A61314B9A46032336
:100630003A00D02150460DF0F3FD43464A465A6138
:100640009A6103233200F02150460DF0E9FD434644
:100650004A465A6180235B04994643464A469A615A
:1006600003236A46F02150460DF0DAFD43464A4620
:100670005A619A6103232A00D02150460DF0D0FD23
:1006800043464A465A613B785B027A785200E02141
:1006900009010B401343BA78D2091343236032781F
:1006A000520273785B000A401A43B378DB091A439D
:1006B00062602A7852026B785B000A401A43AB787A
:1006C000DB091A43A2606B461B785B026A465278CC
:1006D00052000B4013436A469278D2091343E360F9
:1006E00004B0E0BCBA46B146A846F0BD48E30010ED
:1006F00000C0034010B500F031F810BD00B583B064
:100700000AF078F9052006F0C1FA11480AF036F926
:10071000FFF7F8FD0322002101A809F0F3FF01A86B
:10072000FFF7B4FE0B4B9B886A461380D0231B0651
:100730005B689B0605D5684600F02EF9002003B0E3
:1007400000BD054808F07CFA030000210800984726
:1007500030E3001048E3001055420000264B1860BB
:10076000264B1B6898422BD2C31A013BFA22520136
:10077000934229D20023002B21D0214B1B68214A10
:100780001268934226DA14331D4A13601C4B1B680F
:10079000002B2DD1FF331B041B4A126853401B0C46
:1007A0001B041A4A1360164B1B68002B22DB1B0428
:1007B000174A126853401B0C1B04164A13607047FB
:1007C000984205D9C31AD1E70C4B18600123D2E730
:1007D0000023D0E70A3B0A4A13600F4A126893428B
:1007E00001DC074B1A60064B1A68064B1A60CDE70E
:1007F0000023D0E70023DAE7B82E00202C290020C0
:10080000381D0020341D0020840005408410054060
:100810005C0005405C1005403C1D002010B5041C28
:10082000FE21890509F0BAFD002801D0FE24A405A7
:10083000094B187809F0BCFD211C09F068FD09F08E
:100840000BFE80B2054B1860054B1B68984201DD1A
:10085000034B186010BDC046281100203C1D00202D
:10086000341D002010B5031C322800D93223DBB21E
:100870000A1C322900D93222D2B200290ED1094BEA
:1008800000221A70FE208005FFF7C8FFAF2040004D
:1008900006F0FCF90020FFF7C1FF10BD9B18014ACC
:1008A0001370EFE7281100207047000010B515E025
:1008B0000E4B9A6A0E4B1A600E480DF0B9FC00F010
:1008C000F7F90B4C206803F019FB206801F06EFE6D
:1008D000206800F01EFB2068FFF70CFF0649054862
:1008E0000DF0D6FC0028E3D1E9E7C0460040054002
:1008F000741C0020701400206C1E00207047000043
:1009000070B51C491C480DF0C3FC00281AD11B4CC3
:100910002000FFF7BBFD1A4B1868210003F05EFBB7
:1009200002F094F904F026FD002813D1144B186846
:10093000144A154900F09CFA144B1B785BB2012B4A
:1009400013D070BD124B9A6A0D4B1A600A480DF015
:100950006FFCDCE70A4D28680E4C210002F008FD10
:100960002868210004F052FDE0E7054B186800F00C
:10097000D1FAE6E7681E002070140020BC170020A2
:10098000741C0020A0170020C0170020291100208F
:10099000004005407017002070B5041E00D1A4E08F
:1009A000FFF7B0FC00F0B4FA5048FFF76FFD00F01D
:1009B000F5F900283AD100F0E7F8C82006F066F90A
:1009C0004B4800F0A3FA494B4A4A4B494B4803F0C5
:1009D000E1F94B4B4A22FF32995C4C22FF32985C82
:1009E000FFF740FF01F080F8012565576B1C27D009
:1009F0000023E3565A1C01D0424A13703B4B1B782C
:100A00005A063BD4DA0627D45AB2002A1FDB5A070B
:100A100026D40A221A40022A2CD01B072CD4042DDB
:100A200012DC022D1DDA012D29D016E0304800F02D
:100A30006DFA2E4B2F4A3049304803F0ABF9C8E726
:100A40002F4B02255D57D3E7052D01D005E0052585
:100A50002C4B01221A7012E0002500F056FA0EE02D
:100A60000425284B00221A700A2000F04BFA00F0EF
:100A70004CFA04E00325F4E70225F2E70125002300
:100A8000E356013318D000F03EFA184B9B789B07D1
:100A900026D41D4A1549280001F094FF194B002166
:100AA0005956280000F0F4F90AF0BEFA17480AF087
:100AB000A9FAFFF725FFFCE700F052FA002808D159
:100AC0004B3000F01FFA00F020FA0E4B02221A7091
:100AD000D9E7642000F028FA0A4B01221A70D2E705
:100AE000074B9D7000F032F9D3E770BDBC170020B2
:100AF0008C16002070170020A017002088170020F7
:100B0000C815002029110020C0170020AD080010D2
:100B100010B5040004F072FF00220121200004F04F
:100B200053FF0123A340D0221206936210BD0000A0
:100B300010B5124809F052FF002407E0104B5B1873
:100B4000D978104809F04AFF0134E4B2052C0DD8D9
:100B50000AF03EFD2100C0B2094A1219D070002CE3
:100B6000ECD1130001229043D870E7E7044B9B229D
:100B70001A720A2009F0CEFE10BDC04650E30010E4
:100B8000C815002060E30010F0B5D7B0AC246400B5
:100B900022000021684609F0B5FD3D4B6A461380EE
:100BA00080231B010393049305930693394B1793FA
:100BB000189319931A931B931C931D931E931F93C1
:100BC000802269468B5004328B5004328B500432A1
:100BD0008B5004328B5004328B5004328B50FF20E8
:100BE0000004C423C85004332B4ACA502B4A043390
:100BF000CA50FF21090604336D46E950FF231B024A
:100C0000D4256E4673510435254E6F467E5104350A
:100C1000244E7E5104357851E4203950E8217B5030
:100C200004317A50F0226946BB5032234A22FF3207
:100C3000BB540132BB5422001B4809F069FD00205F
:100C400001F086FE012001F083FE022001F080FE0B
:100C5000032001F07DFE042001F07AFE002306E06F
:100C6000114AD2189C32FF21117001339BB2192B0B
:100C7000F6D90E4C06220021200009F043FDA01DEC
:100C80000622002109F03EFDFFF752FF57B0F0BDEC
:100C900000A0FFFF000016440000FF4D0000FFE62B
:100CA00000F115FF00FF6100C81500207E1600202E
:100CB00070B51D4CA5441D4B1B78002B03D1802320
:100CC0005B019D4470BD0AF0C7F9EFF3108672B660
:100CD00000230093164A002101A809F013FDAC225D
:100CE00052001449684609F013FD80256D01124C2D
:100CF000290020000DF0D4FA2A00694620000DF0EA
:100D0000AFFA86F310880AF0B1F90C4B1B78002B70
:100D100003D1064B00221A70D1E704F057FB074BB2
:100D200000221A70F5E7C04600F0FFFF0B2F0020ED
:100D3000FC0F0000C815002000D01200132F002067
:100D4000014B01221A707047132F0020014B012222
:100D50001A7070470B2F002010B5031C322800D9E1
:100D60003223D8B203494C22FF328B540121FFF7C2
:100D700079FD10BDC815002010B5031C322800D91C
:100D80003223D9B2044A4A20FF3013544C23FF3394
:100D9000D05CFFF767FD10BDC815002010B51A4CD8
:100DA000AC2252001949200009F0B2FC2288A0238D
:100DB0001B029A4209D0164809F0E0FDFFF7E4FE55
:100DC0000020FFF7C3FF00201CE00F4AA5235B00B3
:100DD000D35C1A1C312B00D832220B4CA5235B00AC
:100DE000E2544C23FF33E05CFFF7B6FF4A23FF33A6
:100DF000E05CFFF7C1FFE37801229343E3709B239C
:100E00002372012010BDC046C815002000D012106A
:100E100068E3001010B5034CE06021616261A361DA
:100E200010BDC046C815002070B50D00064C20222C
:100E30000100200009F06CFC200020302022290055
:100E400009F066FC70BDC0462416002070B50D0088
:100E5000064C20220100200009F05AFC200020301E
:100E60002022290009F054FC70BDC046E415002082
:100E700010B5034B1B68002B00D0984710BDC0462F
:100E8000601A0020014B002018567047FA2E0020EF
:100E900010B5154B1870C3B2052B03D88000134B47
:100EA0001B589F46124B134A1A60002000F08CF822
:100EB00010BD0F4B0F4A1A60012000F085F8F7E7CC
:100EC0000B4B0C4A1A60052000F07EF8F0E7084B47
:100ED000094A1A60ECE7064B084A1A60E8E7044B37
:100EE000074A1A60E4E7C046FA2E0020BCE300106F
:100EF000601A00204910001041480010B14F001046
:100F00000552001070477047704770477047704730
:100F100070477047704710B50020FFF7EFFC962030
:100F2000400005F0B3FE10BD00B583B023280AD8F9
:100F3000C0B20538C0B27F23184001AB04221A703A
:100F4000587003B000BDAF235B00984200D9180071
:100F500028380A2107F0A0FEC0B21F30C0B2EAE76D
:100F600010B5024809F00AFD012010BDD4E30010BD
:100F700010B5FFF787FF052801D0024810BD0248D1
:100F8000FCE7C0460CE40010FCE4001010B50020A3
:100F90000CF0D2F810BD0000037801330370044B4D
:100FA0001B785BB2052B01D0024870470248FCE772
:100FB0000012002040E6001078E70010014B186096
:100FC0007047C046981E002010B50400002001F0B4
:100FD000E7FA012C0FD0052C17D01148FFF7EEFFD0
:100FE000104B114A1A60114B114A1A60114B1C70B8
:100FF0000CF0AEFC10BD6420FFF7E0FF094B0E4A79
:101000001A600A4B0D4A1A60F0E76420FFF7D6FF1A
:10101000044B0B4A1A60054B0A4A1A60E6E7C046C1
:10102000B01D0000941E0020095200109C1E0020DC
:101030008D0F00100012002055580010951500105B
:10104000F1400010211A001070B506000C001500C8
:101050000120002140420BF0E3FB1F4B1B785BB2E9
:10106000012B01D0052B0AD11C4B1B689847002887
:1010700004D01B4B1B6829002000984770BD194BFA
:101080001A78194B1E60002A15D1184B1B689E4216
:1010900015D2F31A013B16498B4214D8002A16D0F8
:1010A0000E4B1B6898470028E8D00D4B1B682900A1
:1010B00020009847E2E70D4B1E600022EEE79E42BB
:1010C000ECD9F31AE7E7094B1E600122E6E7054B6E
:1010D00000221A70D2E7C046001200209C1E002099
:1010E000941E0020122F0020BC2E0020302900204A
:1010F0004B1D0000064B1B785BB2012B03D0052B68
:1011000003D1044870470448FCE70448FAE7C046A6
:101110000012002064E7001088E6001048EE00107E
:10112000064B1B785BB2012B03D0052B03D104487F
:1011300070470448FCE70448FAE7C0460012002064
:1011400038E7001058E6001008EE00100020704745
:10115000014B01221A707047122F002070B504ACA9
:101160002588234C247864B2012C28D0052C0FD07C
:10117000002908D1002A06D11878102804D02A00A6
:10118000190000F0DBFF70BD981C00F04BFDFAE782
:101190000029F8D1002AF6D11A78112A05D0132A8D
:1011A000F1D1144809F01AFCEDE75B78002B04D06C
:1011B000FE208005FFF732FBE5E70020FAE7002973
:1011C000E1D1002ADFD11A78002ADCD15A78082A26
:1011D000D9D1DA78002A02D11B79002B04D0FE2065
:1011E0008005FFF71BFBCEE70020FFF717FBCAE7E0
:1011F00000120020C0E50010044B1B785BB2052BE9
:1012000001D0034870470348FCE7C04600120020A5
:101210005CEE0010CCE6001070B5EE2824D000285B
:1012200025D080001E4BC55828000CF0B7FFC0B277
:101230001F2800D91F20002327E05A1C194CA15C4D
:101240000902E25C0A43440017496252023301304A
:10125000112BF2D9154A144B13CB13C211001A6883
:101260000A609B888B8019E000200023F0E70C4B7C
:10127000196802220E4809F04BFA012007E05A1CB7
:10128000EC5C5100094BCC52D3B29842F7D80130F4
:101290004000C0239B001843044B1880034870BDD6
:1012A0003011002004E6001044170020841A0020AA
:1012B000861A002000B591B04022694600200CF04B
:1012C000C9F900200CF0DCF9064B1B785BB2002B4F
:1012D00001D011B000BD044809F050FB684604F08D
:1012E00003F9F6E700120020D8E50010F0B583B04E
:1012F00005001400012966D113785B069B0F012BB2
:1013000058D0022B03D0002B01D000205CE0637882
:10131000022B24D0072B03D0012B19D0002053E03F
:10132000227963791B021343042B03D0052B08D0C9
:10133000002049E02433264A210028000BF094FBCA
:1013400042E08D33234A210028000BF08DFB3BE067
:101350002723214A210028000BF086FB34E0227964
:1013600063791B021343072B30D11C4B1B785BB2F4
:10137000052B0FD06B469F1D194E022231003800FD
:1013800009F0C6F93B883200083A210028000BF02A
:101390006BFB19E06B469F1D124E02223100380094
:1013A00009F0B6F93B883200083A210028000BF01A
:1013B0005BFB09E051780C4809F010FB2100280084
:1013C0000BF036FB00E0012003B0F0BD0020FBE78E
:1013D000D81100204411002018E60010001200204F
:1013E00050E4001028E50010F0E5001001207047DF
:1013F00010B584220021024809F084F910BDC046CE
:10140000BC22002010B50020FFF7F2FF10BD000045
:10141000F0B5C64600B580460D008B795D2B24D112
:101420000B79DF00FF1ABFB21937BFB2974221D83C
:101430000C780C19002605E0104A53700136F6B2FC
:101440002378E4182B79B34210D96378052BF7D1B0
:10145000210040460AF012FF00280DD0A378DA09D7
:10146000012AE9D0054A9370E8E70027380080BCDC
:10147000B846F0BD0027F9E70027F7E7BC220020B7
:1014800030B583B0040014484078884206D0124A30
:1014900092788A420CD0012003B030BD0F4A002A56
:1014A00018D09AB20E490020FFF752FE0120F3E750
:1014B0000C4D9BB200932B00002200210020FFF76F
:1014C0004DFE2B00443B997840232A0020000AF06F
:1014D00049FFE1E70120DFE7BC22002051110010A5
:1014E000C02200200023002010B50AF02BFE0028A7
:1014F00003D10023002B08D110BD0AF02BFE0028D9
:1015000001D10123F6E70023F4E70B4B9978002083
:101510000AF064FF0028EFD1074CA1780AF0FAFE28
:1015200022004432A178402300200AF01BFFA1785A
:1015300000200AF003FFDFE7BC22002070B50500A1
:101540000C000AF007FE002806D1812100200AF0D5
:10155000E1FE002803D170BD0AF004FEF5E7231C6C
:10156000402C00D940239CB2094E220029003000B3
:1015700009F0CEF8351F69782300320000200AF008
:10158000F1FE697800200AF0D9FEFFF7ADFFE2E72F
:10159000C022002010B5104B5C780AF0D3FD002863
:1015A00006D10023002B13D0002C09D1002010E01D
:1015B0000AF0D0FD002801D10123F3E70023F1E771
:1015C000210000200AF00AFF002803D1013000E0CA
:1015D000002010BD0020FCE7BC22002010B53C22FA
:1015E0000021024809F08EF810BDC046201B0020E3
:1015F00010B50020FFF7F2FF10BD0000F0B583B07A
:1016000006000F001500FFF73DFC05284CD13B7983
:10161000DC00E41AA4B21234A4B2AC4248D80023CD
:10162000002B09D00025002D44D0397879184B784B
:10163000212B11D0002438E01A01D21A92001F4841
:1016400082185278002A02D00133DBB2E8E71A018F
:10165000D11A89004518E6E7A9630B78C9183A79C9
:101660006B1C0193AB1C0093032330000AF020FE97
:10167000002821D0BB79012B13D001232B71BB781B
:101680002B70AA6BD179137A1B020B43EB80A978DC
:1016900000290AD02A003032062330000AF062FE08
:1016A00003E0FB79EB70E8E70024200003B0F0BD15
:1016B0000024FAE70024F8E70024F6E7201B0020C6
:1016C00070B582B005001D4C002000280AD000280B
:1016D00030D162788A4213D0A2788A421AD001208F
:1016E00002B070BD0401241AA400144A1419A2788F
:1016F0008A42ECD062788A42E9D00130C0B2E4E795
:101700000F4A002A18D0210008319AB2FFF720FDB5
:101710000120E5E7260030369BB20093330000221B
:101720000021FFF71BFDA1780623320028000AF0F4
:1017300019FED5E70020D3E70120D1E7201B0020C8
:1017400051110010F0B5C64600B582B00600150074
:1017500012781F231340012B00D01FE128790024A9
:10176000002C0DD0FF24002C00D01CE127006023AA
:1017700018001040134239D101290BD001200EE18D
:1017800023011B1B9B008E4FDB5D9842EBD0013485
:10179000E4B2E5E7EA786B78062B06D0062B00D09A
:1017A00005E1222A12D00020F9E0212AF6D12301F6
:1017B0001F1BBF00824BDF19BA6B002A00D1F4E077
:1017C0001378290030000BF04FF9E8E02000FFF714
:1017D00013FD02003B01DF1BBF00794BDF19FB88C3
:1017E000290030000BF040F90120D8E0202800D07B
:1017F000DFE06B780B2B00D9DDE09B00714AD358FA
:101800009F46012901D00120C9E0EA78A978230187
:101810001B1B9B0008336A4FFF18A879EB791B024A
:101820000343181C252B00D9252080B2002909D09C
:10183000012B16D97B1C9C463970013880B20123DC
:10184000984602E0BC46002398460090634620007C
:10185000FFF77CFC030043449BB2002B05D1002022
:101860009DE0BC4600239846EFE73A00290030008F
:101870000BF0FAF8012092E0012903D0032915D0DA
:1018800001208CE0AA79EB791B021343062B01D9C6
:10189000002084E02201121B9200303248498A184D
:1018A000290030000BF0E0F8012078E0EA78A97810
:1018B00023011B1B9B0030334148C318AE79E879E4
:1018C00000023043051C062800D90625ADB20029C8
:1018D00004D0012802D91878884205D0009520004C
:1018E000FFF73CFC01205AE00133013DADB2F5E7C2
:1018F000012901D0012052E0E97823011F1BBF001C
:101900002F4BDF197971304B002B04D0200000E001
:1019100000BF002843D0290030000BF089F80120D7
:101920003DE0012901D0012039E02201171BBF0051
:10193000234AD21905320123290030000BF094F814
:1019400001202CE0012901D0012028E02201171BF1
:10195000BF001B4AD21904320123290030000BF0CA
:1019600083F801201BE0012903D0032907D00120BF
:1019700015E0290030000BF05BF801200FE0A9789A
:1019800023011F1BBF000E4BDF1939710F4B002BBA
:1019900013D0200000E000BF012000E0002002B0D2
:1019A00080BCB846F0BD0020F9E70020F7E7002032
:1019B000F5E70020F3E70020F1E70120EFE7C0465C
:1019C000201B00209CE6001000000000000000002A
:1019D00010B50301181A8000104B181844780AF04B
:1019E000B1FB002806D10023002B13D0002C09D115
:1019F000002010E00AF0AEFB002801D10123F3E73C
:101A00000023F1E7210000200AF0E8FC002803D1C0
:101A1000013000E0002010BD0020FCE7201B00206A
:101A200010B50020FFF7D4FF10BD0000F8B504008A
:101A30000F0016001D0003011B1A9B001F4AD3183C
:101A4000597800200AF066FC002825D0002F24D009
:101A50002B1C242D00D924239DB2184A2301191BC5
:101A6000890051180F721B1B9B000833D0180130DE
:101A70002A00310008F04CFE0135ADB20F4B2001B9
:101A8000021B920008329A18001B80001818417837
:101A90002B0000200AF066FCF8BD2B1C252D00D978
:101AA00025239DB22001001B80000830034B18182D
:101AB0002A00310008F02CFEE0E7C046201B002081
:101AC00010B513000A0001000020FFF7AFFF10BDA2
:101AD000107003120F20184050700B011843507003
:101AE000091191707047000070B5124D80242401D7
:101AF0002A0021002000FFF7EBFFEA1C2100200054
:101B0000FFF7E6FFAA1D21002000FFF7E1FF2A00F2
:101B1000093221002000FFF7DBFF2A000C322100F0
:101B20002000FFF7D5FF2A000F3221002000FFF729
:101B3000CFFF70BD942E002010B540220021024836
:101B400008F0E0FD10BDC046D81D0020014B187004
:101B50007047C0460E2F0020014B18737047C046D7
:101B6000D81D0020014B58737047C046D81D002077
:101B7000074A0021535E107806490870033399B272
:101B80001BB21380FF2B01DDFF3911807047C04667
:101B9000EA2E0020D81D0020024B1A78024B5A7002
:101BA0007047C0462CEA0010D81D0020054B0322C8
:101BB0009A734821D9731A74013A5A7447391976BD
:101BC0005A767047D81D002010B5C4B2000A002311
:101BD00007E019000E31044A5454013150540233C5
:101BE000DBB20D2BF5D910BDD81D002030B5C4785F
:101BF00003254557437808211940012293437E323B
:101C00002240012B01D9002907D0402A07D9002DF5
:101C100001DB012004E0002002E0012000E00020C0
:101C200030BD000070B50400FFF7E0FF002832D09F
:101C3000657801239D436D08E3787F201840403884
:101C4000C0B208F0B0FBF221890508F060FB061C69
:101C5000280008F0A8FBF021890508F058FB041CB7
:101C6000011C301C08F09AFB002800D0341C0C49E1
:101C7000201C08F04CFB0B4908F02EFB041CFE2135
:101C8000890508F083FB002801D0FE24A405201C50
:101C9000FEF7C4FD70BD0020FEF7C0FDFAE7C046A8
:101CA000CDCCCC3D6666663F0A4B01221A700022FD
:101CB0005A7003329A70084A117AD970D179197121
:101CC00091795971517999711179D971D2781A72C2
:101CD0007047C046D81D0020C815002010B504006C
:101CE000FFF72AFF8120FFF731FF012C0DD02100E3
:101CF000094808F073FE094B1C70094B1978402302
:101D0000064A00200BF040FA10BD064808F066FEB7
:101D1000FFF7CAFFF1E7C046A8E70010D81D002072
:101D20000E2F002090E7001070B586B06C462A4B4D
:101D30000433220070CB70C270CB70C2022837D03F
:101D4000032841D00023002500E00133052B10D8E3
:101D5000224AD2184D32FF3214780522D21A885CFA
:101D60008442F2D01D4AD2184D32FF321070012544
:101D7000EBE7002D19D18120FFF7EEFE1848012373
:101D80008373164B1A7AC273DA7902749A794274A1
:101D90005A7982741A79C274DB7803751530182267
:101DA000694608F0B5FC06B070BDFEF7CFFFE2E76C
:101DB0008120FFF7D1FE0A48022383730F301022DF
:101DC000084908F0A5FCEEE78120FFF7C5FE044BAB
:101DD00003229A73E7E7C0462CEA0010C8150020DA
:101DE000D81D0020581E002070B504000D001600FC
:101DF000FFF7A2FE2120FFF7A9FEFFF7B9FEFFF7CC
:101E0000CBFE2000FFF7AEFE6A4808F0E7FD482C45
:101E100000D9A7E0A300684AD3589F46674808F056
:101E2000ADFD8020FFF798FE654808F0D7FD00243F
:101E3000B4E0E97A634808F0D1FDE87A431E98419E
:101E4000C0B200F0ADFB8020FFF786FEECE75E48F5
:101E500008F094FD29000C31E87AFFF765FFE3E70D
:101E6000E97A5A4808F0BAFD8020FFF775FEEA7A51
:101E7000574B1A70D8E7574808F080FD8220FFF7CB
:101E80006BFEFFF793FECFE7E97A534808F0A6FD13
:101E90008020FFF761FEC7E7297BEA7AEB7B4F489A
:101EA00008F09CFD9020FFF757FEEA7BE97A287B3B
:101EB00000F026FAB8E7297BEA7AEB7B484808F07D
:101EC0008DFD8020FFF748FE2B7B802BACD1EB7A79
:101ED000262BA9D10024192C10D822001032A95C7D
:101EE000404B1B199C331970A95C3F4808F076FDE4
:101EF0000A2008F00FFD0134A4B2ECE70020FEF741
:101F000025FF91E7394808F039FD8320FFF724FECB
:101F10006420FFF759FE87E7354808F02FFD802041
:101F2000FFF71AFE80E7334808F058FD8020FFF7DE
:101F300013FEEA7A0F231340072B0BD00F2B0DD083
:101F4000032B03D02C4808F019FD6DE72B4808F04F
:101F500015FD69E72A4808F011FD65E7294808F0F2
:101F60000DFD61E72100284808F038FD002405E058
:101F7000295D264808F032FD0134A4B2B442F7D3FB
:101F80000A2008F0C7FC8020FFF7E6FD4CE7204B55
:101F9000195D1E4808F022FD0134E4B21F2CF6D969
:101FA0000A2008F0B7FC4023194A212100200BF039
:101FB000EBF870BDC4E70010F4E80010CCE70010A7
:101FC000ECE80010DCE70010ECE70010FCE7001084
:101FD0000412002014E8001028E800103CE800106B
:101FE00064E80010C81500208CE8001094E8001088
:101FF000A4E80010B8E80010A8050110C8E8001017
:10200000CCE80010D0E80010D4E80010E4E800109C
:10201000D81D002070B50C001500102811D08028A4
:1020200013D0012804D001000A4808F0D7FC07E0CB
:10203000881CFFF7F7FDA07A2A002100FFF7D4FEE5
:1020400070BD881CFFF7EEFDFAE74878FFF746FE03
:10205000F6E7C04618EA0010094B1B780A2B07D098
:102060000B2B09D0064B0A221A70054B18787047C3
:10207000034B0B221A70F8E7014B0C221A70F4E79D
:102080000512002070B50400254B1B78002B04D1ED
:10209000244B1B78302B0BD070BD234B1A88234B5D
:1020A00018782349FFF7B6FF1D4B00221A70F3E79B
:1020B000FFF742FD3020FFF749FDFFF759FDFFF71D
:1020C0006BFD1C4D28000C3000F0F6F92378AB7046
:1020D0006378EB70A3782B71E3786B7123790F2110
:1020E0000B40AB716079A3791B0203431B11EB71A9
:1020F000E3792B72237A19406972617AA37A1B0201
:102100000B431B11AB72FFF7A7FFE8720A4B19785C
:1021100040232A0000200BF037F801F011FEBBE746
:102120000F2F00200412002002120020102F002088
:10213000181E0020D81D00200E2F002010B5054BC2
:1021400001241C70044B1870044B1A80044808F0DA
:10215000DFFA10BD0F2F0020102F002002120020E8
:10216000181E002010B5024B181808F0D1FA10BD47
:10217000D81D0020502800D1ADE00FD960282CD008
:10218000802820D10B00263BDBB2192B00D9AEE012
:102190002639584B59189C31087813E0402800D94B
:1021A0009BE0202808D3242900D19AE00DD80129EA
:1021B00000D098E0222005E0002803D0102800D0AD
:1021C0008DE000207047FF20FCE72639C9B22529A1
:1021D00001D8FF20F6E70020F4E7A92979D88B0081
:1021E000454AD3589F46FF20ECE70220EAE701204A
:1021F000E8E72320E6E70020E4E7B920E2E71A2039
:10220000E0E70120DEE70020DCE74020DAE70020FD
:10221000D8E74020D6E70020D4E74020D2E70120CD
:10222000D0E70020CEE70120CCE70020CAE701205C
:10223000C8E70020C6E73B20C4E73420C2E73B20C4
:10224000C0E73420BEE73B20BCE73420BAE73D3985
:102250002A4B585CB6E73D39284B585CB2E71A2048
:10226000B0E71A20AEE71A20ACE75E20AAE701200B
:10227000A8E75020A6E7FD20A4E70020A2E7002061
:10228000A0E7C6209EE70F209CE70F209AE73020AA
:1022900098E7612096E7AE2094E7902092E7D92056
:1022A00090E7D4208EE714208CE754208AE7412061
:1022B00088E7152086E7542084E7C72082E7792045
:1022C00080E79C207EE733207CE736207AE7632096
:1022D00078E7002076E7002074E7FF2072E7FF2010
:1022E00070E768206EE700206CE703206AE7FF20B4
:1022F00068E7C046C815002048EA0010942E002068
:10230000F0B58BB006000F00150008A90F704870DB
:1023100000248C70CC700A7105220E20FFF722FF7A
:1023200000941A22002101A808F0ECF907E03919FD
:10233000C9B23000FFF71EFF6B4618550134A542A5
:10234000F5DC2A0069461320FFF70CFF0BB0F0BD47
:102350004118CB0F5B185B1080225202914204DAC5
:10236000044A914203DB18B270470348FCE7034874
:10237000FAE7C046FFFFFEFFFF7F00000080FFFF7F
:1023800070B51B48FEF7C0FDFEF7BDFD194D0622D6
:102390000021280008F0B6F9A81D0622002108F047
:1023A000B1F9154B01221A70144BFA2252011A602E
:1023B000134E144C31002000FEF776FA0623E25E3D
:1023C000B63DB923EA540823E25EBA23EA540A234D
:1023D000E25EBB23EA540623F25EBF23EA540823DD
:1023E000F25EC023EA540A23F25EC123EA5470BDB0
:1023F0000000FFFF7E160020FC2E0020B41C0020F1
:10240000A81C0020901C002010B5FEF77EFDFEF7F2
:102410007AFDFEF795FCFEF799FC024B00221A703C
:1024200010BDC046FC2E0020F8B51D4D1D4E2900E4
:102430003000FEF739FA1C4CB9270623F15EE0574D
:10244000FFF786FFE05501370823F15EE057FFF7FD
:102450007FFFE05501370A23F15EE057FFF778FF71
:10246000E055BF260623E95EA057FFF771FFA05590
:1024700001360823E95EA057FFF76AFFA055013631
:102480000A23E95EA057FFF763FFA055074A1368C8
:10249000013B1360002B00D0F8BDFFF7B5FFFBE751
:1024A000A81C0020901C0020C8150020B41C00208F
:1024B0000870001248707047F0B583B0040001A99D
:1024C0002F480BF0E5FE0028F9D02E4E337823700C
:1024D000737863702C4D2B78A3706B78E3702B4866
:1024E000037823714378637129490B78A3714B7882
:1024F000E371284A1378237253786372264B1F784E
:10250000A7725F78E772B7782773F7786773AF7849
:10251000A773EF78E77387782774C77867748F7825
:10252000A774CF78E77497782775D77867759F7801
:10253000A775DF78E77537792776767966762E790D
:10254000A6766D79E5760579257740796077087903
:10255000A0774979E17710792021605451792122BF
:10256000A15419790132A1545A792323E2540B4B17
:1025700000221A7002480BF05BFE03B0F0BDC046AB
:1025800078140020601700205817002068170020DA
:10259000801C0020781C0020881C0020FF2E0020BA
:1025A000014B18707047C046FE2E0020F0B583B076
:1025B0006C4B1A78002A16D16B4B1B78002B03D179
:1025C0006A4B1B78022B0CD9694B1860694B1B684E
:1025D00098420BD2C31A013B67498B420AD8002AA2
:1025E0000CD103B0F0BDFFF71FFFFAE79842F6D910
:1025F000C31AF1E75F4B18600122F0E75F496048BA
:10260000FEF752F95F4B1B78002B45D05C4DE888F4
:102610005D4FB923FB569BB2C01A584EF188BF23B9
:10262000FB569BB2C91A09B200B2FFF791FE574C94
:10263000E0802889BA23FB569BB2C01A3189C02397
:10264000FB569BB2C91A09B200B2FFF781FE208186
:102650006889BB23FB569BB2C01A7189C123FB5604
:102660009BB2C91A09B200B2FFF772FE6081002363
:10267000F15E0023E85EFFF76BFE20800223F15E2F
:102680000223E85EFFF764FE60800423F15E04230A
:10269000E85EFFF75DFEA08001A93D480BF0F8FD64
:1026A0000028F9D0314B1C786400E4B2354B1B781C
:1026B000002B30D037490919344D0623E85EFFF767
:1026C000F7FE354909190823E85EFFF7F1FE3349A3
:1026D00009190A23E85EFFF7EBFE314909190023C7
:1026E000E85EFFF7E5FE2F4909190223E85EFFF7D0
:1026F000DFFE2D4909190423E85EFFF7D9FE2448BF
:102700000BF096FD194B1B78022B00D969E70133BA
:10271000164A137065E71F490919194D0623E85E2B
:10272000FFF7C6FE1C4909190823E85EFFF7C0FE43
:102730001A4909190A23E85EFFF7BAFE1849091970
:102740000023E85EFFF7B4FE164909190223E85E8C
:10275000FFF7AEFE144909190423E85EFFF7A8FE4F
:10276000CDE7C046FC2E0020FE2E0020FF2E0020CC
:10277000C02E0020342900202D090000A81C0020B4
:10278000901C0020FD2E0020C81500209C1C00205D
:1027900078140020781C0020801C0020881C002059
:1027A000581700206017002068170020C3B2052BBF
:1027B00003D880000D4B1B589F460D4B0B60083310
:1027C000136070470B4B0B6008331360F9E70A4B3B
:1027D0000B6008331360F4E7084B0B600833136099
:1027E000EFE7074B0B6008331360EAE7F0EC0010EB
:1027F000C0160020E0160020D0160020F0160020A1
:102800000017002030B50F220D780F231D400478EB
:1028100094432C4304704C781C40250104781C40E0
:102820002C4304708D781D40447894432C434470AD
:10283000CC781C40250144781C402C4344700D7911
:102840001D40847894432C4384704C791C402501AE
:1028500084781C402C4384708D791D40C478944347
:102860002C43C470CC791C402501C4781C402C43F7
:10287000C4700D7A1D40047994432C4304714C7A42
:102880001C40250104791C402C4304718D7A1D40A5
:10289000447994432C434471CC7A1C4025014479FB
:1028A0001C402C4344710D7B1D40847994432C4380
:1028B00084714C7B1C40250184791C402C4384711D
:1028C0008D7B1D40C479944322002A43C271CA7B88
:1028D0001A401201C1790B401343C37130BD0B780C
:1028E0001B071B0F03700B781B0943704B781B07EA
:1028F0001B0F83704B781B09C3708B781B071B0F52
:1029000003718B781B094371CB781B071B0F8371F5
:10291000CB781B09C3710B791B071B0F03720B7953
:102920001B0943724B791B071B0F83724B791B09E1
:10293000C3728B791B071B0F03738B791B094373BE
:10294000CB791B071B0F8373CB791B09C3737047AC
:1029500070B50400144D154A2900FFF727FF2B68B6
:10296000134A1168526819605A60032C12D0042C63
:1029700015D0022C09D00D4B1B6800221A800A4B7F
:1029800019680C48FFF7ABFF70BD084B1B680A4A7B
:102990001A80F4E7054B1B68084A1A80EFE7034BDF
:1029A0001B68074A1A80EAE7301D0020901E0020AD
:1029B00048ED0010201D002000E1FFFF00C0FFFFD8
:1029C00000CAFFFF10B5084B1960084B1A60084B8E
:1029D0001870084C084A2100FFF7E8FE21680748F4
:1029E000FFF77DFF10BDC046C8170020CC170020A0
:1029F000042F0020301D0020901E0020201D0020EC
:102A0000024AA4235B00D0547047C046C81500207A
:102A100010B5044B00221A70034B19680348FFF7E6
:102A20005EFF10BDF12E0020301D0020201D002073
:102A300070B590B00500364C364E22003100FFF7DD
:102A4000B5FE31683448FFF74AFFFFF7E1FF002386
:102A500000933C22002101A807F054FEA6236A46F9
:102A60001370557033681A781207120F69468A700E
:102A70001A781209CA705A781207120F0A715A7816
:102A800012094A719A781207120F8A719A781209FC
:102A9000CA71DA781207120F0A72DA7812094A72CA
:102AA0001A791207120F8A721A791209CA725A79A0
:102AB0001207120F0A735A7912094A739A79120788
:102AC000120F8A739A791209CA73DA791207120FF0
:102AD0000A74DB791B094B74226813881B0A8B74F8
:102AE0001388CB740D4BA42252009A5C0A75A52260
:102AF00052009B5C4B75002002F048FC00200AF05D
:102B0000EFFD4022694600200AF0CCFD10B070BDF8
:102B1000841E0020801E0020701E0020C81500208A
:102B200070B50A0000210F2937D803000B41DB07DD
:102B300014D40131C9B2F6E70133DBB20F2B0FD841
:102B40002A4AD05C2A4A12789042F5D1294A146860
:102B500001209840228802432280EDE70023EDE720
:102B6000224C234803786354224B1D6801228A407B
:102B70002B8893432B8002781F4807F02FFF1F4BB1
:102B800000221A701E4B18682100FFF73BFE1D4BF8
:102B900000201856FFF74CFF70BD002AFCD000241F
:102BA00001E00134E4B20F2C14D8104B1A5D104B25
:102BB0001B789A42F5D12100134807F00FFF0D4B07
:102BC00019680122A2400B8813430B800B4B002293
:102BD0001A70E6E70A4B18680449FFF713FE094B21
:102BE00000201856FFF724FFD6E7C046701E0020CD
:102BF000F02E0020841E002008ED0010F12E002091
:102C0000801E0020112F002024ED001070B504005C
:102C10000D00084E084A3100FFF7C8FD316807482B
:102C2000FFF75DFE064B1C70064B1D70064B012224
:102C30001A7070BD801E0020841E0020701E0020AF
:102C4000112F0020F02E0020F12E002070B52B4B0C
:102C50001A680021117051701B6800229A70284B6D
:102C60001B78002B12D0274B1A6893789B07D90F3B
:102C7000002B03DA9378022083439370214B1B6867
:102C80001A78587800021043FFF74AFF01F02AFA39
:102C900000285CD1194B196808784B781B02034354
:102CA0001BB2194A12685278D20609D4154A126822
:102CB0005278D206D20F1548007B824012B200E053
:102CC000002213439AB2FF2003400B70120A4A708D
:102CD0000A4B196808784B781B0203431BB20A4A57
:102CE00012685278920613D4064A126852789206F5
:102CF000D20F0648407B824012B20AE0CC17002077
:102D0000F12E0020C8170020901E0020201D00205A
:102D1000002213439AB2FF2003400B70120A4A703C
:102D2000E24C2168E24803689B789B07DB0F5B005D
:102D30008A780225AA4313438B70216803689B7825
:102D4000DB07DA0F8B780120834313438B70D74B5B
:102D5000196808784B781B0203431BB2D54A1268E6
:102D60001278D20700D584E1D14A12681278D207CE
:102D7000D20FD1480078824012B213439AB2FF209A
:102D800003400B70120A4A70C84B196808784B78D8
:102D90001B0203431BB2C74A12681278920700D580
:102DA00069E1C34A126812789207D20FC24840788C
:102DB000824012B213439AB2FF2003400B70120AF2
:102DC0004A70BA4B196808784B781B0203431BB250
:102DD000B84A12681278520700D54EE1B44A126818
:102DE00012785207D20FB4488078824012B213434F
:102DF0009AB2FF2003400B70120A4A70AB4B19685D
:102E000008784B781B0203431BB2AA4A1268127857
:102E1000120700D533E1A64A126812781207D20FC2
:102E2000A548C078824012B213439AB2FF200340F3
:102E30000B70120A4A709D4B196808784B781B0278
:102E400003431BB29B4A12681278D20600D518E1E0
:102E5000974A12681278D206D20F974800798240BA
:102E600012B213439AB2FF2003400B70120A4A7049
:102E70008E4B196808784B781B0203431BB28D4AAE
:102E800012681278920600D5FDE0894A126812781D
:102E90009206D20F88484079824012B213439AB208
:102EA000FF2003400B70120A4A70804B19680878A3
:102EB0004B781B0203431BB27E4A126812785206FB
:102EC00000D5E2E07A4A126812785206D20F7A48A8
:102ED0008079824012B213439AB2FF2003400B70F4
:102EE000120A4A70714B196808784B781B02034329
:102EF0001BB2704A12681278D20900D0C7E06C4A3F
:102F000012681278D2096C48C079824012B2134319
:102F10009AB2FF2003400B70120A4A70634B196883
:102F200008784B781B0203431BB2624A126852783E
:102F3000D20700D5ADE05E4A12685278D207D20FB0
:102F40005D48007A824012B213439AB2FF200340D8
:102F50000B70120A4A70554B196808784B781B029F
:102F600003431BB2534A12685278520700D592E0CD
:102F70004F4A126852785207D20F4F48807A8240E7
:102F800012B213439AB2FF2003400B70120A4A7028
:102F9000464B196808784B781B0203431BB2454A1D
:102FA00012685278920700D577E0414A1268527849
:102FB0009207D20F4048407A824012B213439AB22D
:102FC000FF2003400B70120A4A70384B19680878CA
:102FD0004B781B0203431BB2364A12685278120721
:102FE0005DD4334A126852781207D20F3248C07A41
:102FF000824012B213439AB2FF2003400B70120AB0
:103000004A702A4B196808784B781B0203431BB29D
:10301000284A12685278520643D4254A12685278D8
:103020005206D20F2448807B824012B213439AB2D8
:10303000FF2003400B70120A4A701C4B1968087875
:103040004B781B0203431BB21A4A12685278D2090A
:1030500029D1174A12685278D2091748C07B82409A
:1030600012B213439AB2FF2003400B70120A4A7047
:1030700070BD002281E600229CE60022B7E6002215
:10308000D2E60022EDE6002208E7002223E7002234
:103090003DE7002258E7002273E700228EE7002276
:1030A000A8E70022C2E70022DBE7C046CC170020D9
:1030B000C8170020901E0020201D0020F0B5DE461D
:1030C00057464E464546E0B583B005000C00AC239C
:1030D000CB5C002B2FD0B823CB5C9B005B58984671
:1030E000AE23E35C002B2CD0B023E65C013EF6B2AD
:1030F000E6547B4BE818C317C018584080231B01C7
:103100009D421CDA01277F4207F052F9B423E158AF
:1031100007F0FDF807F06EF94743B823E35C80221F
:103120001201944667449B001F51002E0DD1AE231F
:103130000022E25409E080231B019846D0E70127D2
:10314000E2E7B823E35C9B001D51AD23E35C002B59
:1031500014D0634BEB18DA179B1853409946AF23F2
:10316000E65C0136F6B2E654282E02D85D4B99454E
:1031700012DD0023AF22A354023AA354A423E35840
:10318000AB4200DCA0E080221201954272DA934249
:1031900000DB97E000236EE0A823E0584B4619338C
:1031A000984263DDFA2861DD07F002F9011C4E4800
:1031B00007F097F80190B923E75C00239B461AE0DB
:1031C00001239A4607F0F4F8019907F0A0F807F0F8
:1031D00011F953464343180080231B019C46604469
:1031E000BB001851781C292105F056FD0F005B46E5
:1031F0000133DBB29B465E450ED9BB001B59384AF2
:103200009818C21780185040802212019342D7DAD2
:1032100001235B429A46D5E780231B019D4223DAB6
:1032200001277F42484607F0C3F8019B9946191CC5
:1032300007F06DF807F0DEF87843B823E35C8022EE
:103240001201944660449B001851B4234A46E25050
:103250000023AD22A35401320121A15404360232CD
:10326000A654013AA35489E70127DBE7A8234A467D
:10327000E25083E70023002B0DD00123AD22A3549D
:103280000332A354013AA354A7330022E25010336F
:10329000E25C0133E254A423E550B825605D0130BF
:1032A000292105F0F9FCC9B26155002902D1AC23EE
:1032B0000122E254404603B0F0BCBB46B246A946E8
:1032C000A046F0BD0123D6E780221201934203DA23
:1032D000954203DA0023CEE70023CCE70123CAE7B7
:1032E00000F8FFFF3907000000007A4370B50D00B9
:1032F00014000D4A1368C31A0C490B6010600C4986
:103300002868FFF7DBFE20600A496868FFF7D6FEF1
:1033100060600949A868FFF7D1FEA060E868074926
:10332000FFF7CCFEE06070BD28290020502300206C
:10333000602900201C2A0020F82A0020B42B00203D
:1033400010B50011084A1378991C084C60540133D9
:10335000DBB213703D2B01D8002010BD13000022FA
:103360001A700120F9E7C046FB2E0020481D0020FE
:1033700010B5444B1860444B1B6898421ED2C31AC8
:10338000013BFA22920093421CD20023002B26D04C
:103390003E4B1B78002B1BD13D4B1B78002B65D17E
:1033A0000B68C93B3B4A934234D93B4B1960384BBD
:1033B00001221A70394B00221A7010E0984205D988
:1033C000C31ADEE7304B18600123DFE70023DDE797
:1033D000314B1B681868FFF7B3FF002800D110BD00
:1033E0002F4BA5221A702D4A12785A702D4801F0E1
:1033F000CDFF002805D10023244A1370244A1370FE
:10340000EDE74022264900200AF04CF900200AF09E
:1034100067F9F0E74B68C93B1E4A934208D904316B
:103420001D4B196001231A4A13701C4A1370D6E70A
:103430008B68C93B174A934209D90831164B19606A
:10344000134B01221A70154B01321A70C7E7CB6873
:10345000C93B104A9342C2D90C310F4B19600C4B37
:1034600001221A700D4B02321A70B8E70A4B1B6822
:103470001B68C93B074A9342B1D8044B01221A701A
:10348000ADE7C046C42E002038290020F32E0020CE
:10349000F92E00206D0E0000882D00200C2F00203A
:1034A000481D00208813000010B506F015FF041C0D
:1034B0000B4906F073FF002806D00949201C06F0CE
:1034C00006FF041C201C10BD0021201C06F050FF2C
:1034D0000028F7D00249201C06F0FEFE041CF1E78C
:1034E0000000B44310B50449FFF7DEFF06F082FF89
:1034F0002D2105F0D1FB10BD0000B441F8B5CE463A
:10350000474680B581460E0000231CE0316800204C
:10351000FFF7CAFF051C71682948FFF7C5FF071CA4
:10352000011C281C06F03AFF00282FD0291C484611
:1035300006F02CFF00283FD1391C484606F018FF42
:1035400000283BD12300072B2ED85C1CE4B2072BAC
:103550002CD0002BDAD01D009B00F158194FD85900
:10356000FFF7A2FF8046A300F158D859FFF79CFF50
:10357000071C4946404606F001FF0028E2D04946B4
:10358000381C06F00BFF0028DCD010E0291C484650
:1035900006F0FCFE0028D5D0391C484606F0E8FEAF
:1035A0000028CFD0002502E0002500E007252800F4
:1035B000C0BCB946B046F8BD0025F8E70025F6E7DF
:1035C0000000344250ED001070B5CD1A801A06F09C
:1035D000EFFE041C280006F0EBFE211C06F060FF45
:1035E000114906F094FE06F03FFF104A104B05F01B
:1035F000D4FD05F0B5FE041C002106F0B9FE00283C
:103600000BD10C49201C06F0C1FE00280AD0094944
:10361000201C06F05CFE041C04E00649201C06F099
:103620005BFE041C201C70BD00003443182D445464
:10363000FB2109400000B443F8B50C0017001E0040
:1036400006F0B6FE051C380006F0B2FE011C281C70
:1036500006F03DFE051C200006F0AAFE041C30000A
:1036600006F0A6FE011C201C06F031FE041C291CDD
:10367000281C06F04CFE051C211C201C06F047FEF1
:10368000011C281C06F028FE06F0F8FEF8BD00001C
:10369000F8B50F00160006F0E7FE0B4A0B4B05F0DD
:1036A0009AFD05F05DFE06F0DFFE04000D0005F05A
:1036B0006DFE05F055FE38602000290005F07CFE07
:1036C00005F04EFE3060F8BD399D52A246DF913FB5
:1036D000F0B5DE4657464E464546E0B585B08046D5
:1036E000019116001F001100FFF708FF0400451CA0
:1036F000072800D188E0AD00464B9B467159E85839
:10370000FFF7D2FE8246A3009946F1585B464A462F
:10371000D058FFF7C9FE80231B06C618311C50463F
:10372000FFF7C2FE8246311C4046FFF7BDFE514600
:1037300006F0D7FD061C011CFE20800506F0C7FD23
:1037400080467859311C06F0E2FD051C4B46F858BE
:10375000414606F0DCFD011C281C06F0BDFD051CE1
:103760002D49301C06F0D3FD061C63001C192001F6
:10377000001B06F01DFE011C301C06F0ADFD0023F1
:103780000393029302AA03A9FFF782FF0199281C61
:1037900006F0BDFD051C039906F0B9FD041C03905D
:1037A000291C029806F0B3FD02908A21C905201C4D
:1037B00006F092FD06F0FCFE06F01CFE002825DB5C
:1037C00080235B01984200DB144806F0F1FD0E9B5C
:1037D00018608A21C905029806F07EFD06F0E8FE11
:1037E00006F008FE002813DB80235B01984200DB13
:1037F0000A4806F0DDFD0F9B186005B0F0BCBB4623
:10380000B246A946A046F0BD002574E70020DEE7D9
:103810000020F0E750ED001000003442FF0F0000E0
:10382000F8B507000E00002409E0A50079597519C4
:103830008A20C00506F055FD28600134E4B2072C4B
:10384000F3D9F8BD30B51A481A4B1A005C320100A2
:1038500031CA31C131CA31C111CA11C116481A0069
:103860007C32010031CA31C131CA31C111CA11C122
:10387000124AD9681160124A59691160114A1969CE
:103880001160114A9969116010481A001C32010038
:1038900031CA31C131CA31C111CA11C10C493C33DD
:1038A0000A0013CB13C213CB13C203CB03C230BD28
:1038B00008120020C815002048120020A81D002072
:1038C000D01D0020AC1D0020D41D0020881D00202C
:1038D000B01D002010B5094B1B68094A1268094940
:1038E000096809480068FDF795FA08490848FDF796
:1038F0009BFA08490848FDF7A9FA10BDD41D00201D
:10390000D01D0020AC1D0020A81D00204812002062
:1039100008120020B01D0020881D002010B50449A9
:103920000448FFF77DFF04490448FFF779FF10BD05
:1039300028120020081200206812002048120020DF
:1039400010B50C4B00221A80203200210A4806F0E4
:10395000D9FE20220021094806F0D4FE20220021B1
:10396000074806F0CFFE20220021064806F0CAFED6
:1039700010BDC046E82E002008120020481200208A
:10398000881D0020B01D0020F0B5DE4657464E468B
:103990004546E0B585B004004E4B9B464E4E1B6835
:1039A000326841680068FFF70FFE80464B4D4C4F70
:1039B0002B683A68E168A068FFF706FE824602902D
:1039C000434601934046FFF78DFD81465046FFF781
:1039D00089FD03905B461B68326861682068FFF7C9
:1039E0002BFE82462B683A68E168A068FFF724FE48
:1039F0008046019806F038FD00223A4B05F0EEFDB6
:103A000005F0AEFC041CFE21890506F0B1FC00287F
:103A100005D13549201C06F0C1FC00281AD04B46C0
:103A20009B00324A9858514606F0A2FC002811D05B
:103A30002F49504606F0B2FC00280BD04B469A00A6
:103A40002A4B5146D15001224B469A4029490B88B6
:103A500013430B80029806F007FD0022214B05F06E
:103A6000BDFD05F07DFC041CFE21890506F080FCEF
:103A7000002805D11C49201C06F090FC002819D014
:103A8000039CA3001C4A9858414606F071FC00288C
:103A900010D01749404606F081FC00280AD0A20049
:103AA000154B4146D15008340122A24011490B88E0
:103AB00013430B800F4B1888104B9C4660444342C5
:103AC0005841C0B205B0F0BCBB46B246A946A046BC
:103AD000F0BDC046AC1D0020A81D0020D41D002054
:103AE000D01D002000804640000030420812002017
:103AF0000000FA42E82E0020481200200100FFFFDB
:103B0000064B02681A60064B42681A60054B8268D1
:103B10001A60C268044B1A607047C046A81D002096
:103B2000AC1D0020D01D0020D41D0020F0B5D646CD
:103B3000474680B583B004003D4B9A463D4D1B6817
:103B40002A6841680068FFF73FFD80463A4F3B4EC8
:103B50003B683268E168A068FFF736FD0190534684
:103B60001B682A6861682068FFF766FD051C3B68D2
:103B70003268E168A068FFF75FFD041C3049281C2B
:103B800006F00CFC00280BD12D49201C06F006FC89
:103B9000002828D1002003B0C0BCBA46B046F0BD12
:103BA0004046FFF79FFC041E10D12649404606F010
:103BB000EDFB002806D02449404606F088FB234B45
:103BC00018600BE0214B42461A6007E08600204B4C
:103BD000F158404606F07BFB1C4B9851A4001D4B4E
:103BE000E5500120D7E7019E301CFFF77BFC051E46
:103BF00010D11449301C06F0C9FB002806D0124928
:103C0000301C06F064FB144B18600BE0124B019A59
:103C10001A6007E087000E4BF958019806F057FB31
:103C20000D4BD851AD000D4BEC500120B3E7C04611
:103C3000AC1D0020A81D0020D41D0020D01D002098
:103C40000000FA4200809D430000B443881D00201C
:103C500050ED001008120020B01D00204812002076
:103C6000F0B5DE4657464E464546E0B587B00400FF
:103C70000D002B4B9B462B4B98465B461B684246E0
:103C8000126841680068FFF79FFC8246264F274E66
:103C90003B683268E168A068FFF796FC81465B46A6
:103CA0001B684246126861682068FFF7C5FC8046C1
:103CB0003B683268E168A068FFF7BEFC041C002383
:103CC000059304930393029304AB019305AB009314
:103CD000174B184A41465046FFF7FAFC02AB0193D6
:103CE00003AB0093144B154A211C4846FFF7F0FC28
:103CF000059806F07FFB2860039806F07BFBA86020
:103D0000049806F077FB6860029806F073FBE860A1
:103D100007B0F0BCBB46B246A946A046F0BDC046BF
:103D2000AC1D0020A81D0020D41D0020D01D0020A7
:103D300028120020881D002068120020B01D0020DD
:103D40000023044A1360044A1360044A1360044ABF
:103D500013607047F81C0020FC1C0020401D002050
:103D6000441D002010B5E1200004FDF7CDF8FDF75B
:103D7000CAF8FFF7E5FD0023034A1370034A1370E6
:103D8000034B01221A7010BDEC2E0020EE2E0020F5
:103D9000ED2E002010B50B4C20600B4801600B4944
:103DA0000A600B4C2360FFF74DFDFFF7B7FD23685A
:103DB0005A7830231340302B00D010BDFFF7D2FFCC
:103DC000FBE7C0467C1A0020801A0020781A0020E9
:103DD000C417002010B5FDF798F8FDF794F8094BCB
:103DE00000221A70FE208005FCF718FDC82002F0A2
:103DF0004DFF0020FCF712FDFFF76CFDFFF78EFD75
:103E000010BDC046ED2E002010B5FDF77EF8FDF781
:103E10007AF80B4B00221A70FE208005FCF7FEFC9E
:103E2000C82002F033FF0020FCF7F8FCFFF752FD3A
:103E3000FCF78CFFC82002F029FFFFF76FFD10BDD3
:103E4000ED2E002010B5024B1868FFF76FFE10BD75
:103E50007C1A002010B5134B1B78002B0CD1124B91
:103E60001868FFF74DFE0F4B01221A700F4B1B68AD
:103E70009B789B0713D410BD0B4B1868FFF784FD8C
:103E80000028F3D00A4B1B78002BEFD1084B0122FE
:103E90001A700848FDF738F8FDF735F8E6E7FFF740
:103EA000B3FFE8E7EE2E00207C1A0020C4170020A4
:103EB000EC2E00200080008070B5C41780252D01F5
:103EC0000026A8427441E4B20B4D4519EE17AD1916
:103ED00075401E78A64203D01C701560086070BD46
:103EE0001368AB4202DA15600860F8E780231B0113
:103EF0009842F4D10B60F2E700F8FFFF70B50400C0
:103F0000274B1860274B1B68984207D2C31A013B06
:103F1000C72B07D80023002B0AD170BD984205D9C2
:103F2000C31AF5E71F4B1C600123F4E70023F2E7F7
:103F30001D4B1868FCF75AFB1C4B1B78002B02D05A
:103F4000FFF788FFE9E71A4E174B18683100FFF7B3
:103F500087FE184D2A6831002000FFF7C7F92B684B
:103F6000154C1868154B164A2168FFF7A5FF2B68FA
:103F7000216808319868134B134AFFF79DFF2B689F
:103F80002268111D5868114B114AFFF795FF2B68E5
:103F900021680C31D8680F4B0F4AFFF78DFFBCE743
:103FA000C82E00203C2900207C1A0020ED2E002085
:103FB000702C0020781A0020801A0020002F00208A
:103FC000F81C0020012F0020401D0020062F00209B
:103FD000FC1C0020072F0020441D002070B50400A9
:103FE0000D00394B1860394B1B6898422CD2C31A0C
:103FF000013BFA22920193422AD20023002B0CD0DB
:10400000AB780422110019401A4227D0304B1B789C
:10401000002B23D12E4B033A1A70AB78DB08012218
:1040200053400122110019402A4804601A423BD132
:10403000294B1B689C423BD2E31A013B274A93421F
:104040003AD800293CD170BD984205D9C31AD0E7AF
:104050001E4B1C600123D1E70023CFE70029DCD1F0
:104060001B4B1B78012BD8D11D4A137801214B40E3
:10407000DBB21370164A00211170002B11D00620FC
:10408000FCF745FF00210520FCF741FF002103203C
:10409000FCF73DFF00210420FCF739FFFCF733FF5C
:1040A000BBE7FCF732FFF9E70B4B1C600021C8E7C8
:1040B0009C42C6D9E31AC1E7074B1C600121C0E747
:1040C000FCF729FFBFE7C046DC2E00205029002066
:1040D000082F0020CC2E002040290020BFC62D0034
:1040E0000A2F0020014B18787047C046092F002086
:1040F000F8B5DE4657464E464546E0B504000D008D
:10410000CF4B21221A70086806F052F9CD4906F00B
:10411000FEF8CD4906F0E0F88246686806F048F9F6
:10412000C84906F0F4F8C84906F0D6F88146A868F0
:1041300006F03EF9C34906F0EAF8C34906F0CCF8A8
:104140008046E86806F034F9BE4906F0E0F8BE495A
:1041500006F0C2F8071C2278D206D20FBB4B012111
:104160008C461978604681430A431A702278920679
:10417000D20F520018780221884302431A70227825
:104180005206D20F92001E780420864332431A70E2
:104190002278D209D20093461A7806318A435E46C5
:1041A00032431A706278D206D60F31005E786246CA
:1041B000964332000E0016435E7062789207D20F6B
:1041C000D2005E7808218E4332435A70627812071B
:1041D000D20F92005E78864332435A706678760733
:1041E000F60F7000D2B206398A4302435A7000219A
:1041F000504606F0BDF800280AD19549504606F011
:10420000CDF8002818D1504606F026F9C0B200E0DB
:1042100000208E4B98700021484606F0A9F800282F
:104220000CD18B49484606F0B9F800281AD1484607
:1042300006F012F9C0B202E0FF20EAE70020834B4B
:10424000D8700021404606F093F800280CD1804930
:10425000404606F0A3F800281AD1404606F0FCF8C4
:10426000C0B202E0FF20EAE70020784B187100217D
:10427000381C06F07DF800280CD17549381C06F072
:104280008DF8002836D1381C06F0E6F8C0B202E0FE
:10429000FF20EAE700206D4B587122789207D20F79
:1042A00092011978402081430A431A702278D2077C
:1042B000110E18787F2202400A431A7022785207A2
:1042C000D20F12011978102081430A431A70227804
:1042D0001207D20F52011978103081430A431A7025
:1042E0005C4AA4235B00D35C052B05D89B005A4A8B
:1042F000D3589F46FF20CEE7637802221100194071
:104300001A4200D0FF21514B9971637808221100A5
:1043100019401A4200D0FF214C4BD9714F4B1B78EA
:10432000002B00D084E0464B14225A70103A9A7247
:10433000DA741A77494B033A1A7025224049002053
:10434000FDF7BEFBFFF7FCFCF0BCBB46B246A9463E
:10435000A046F8BD6278D30712D53E49A5235B007D
:10436000CB5C92070ED4DBB2384A93716378082293
:10437000110019401A4200D0FF21344BD971CDE70A
:104380000023EEE7FF23EFE76278D30712D5314928
:10439000A5235B00CB5C12070ED4DBB22B4AD37192
:1043A00063780222110019401A4200D0FF21274BE6
:1043B0009971B3E70023EEE7FF23EFE7637802226A
:1043C000110019401A4200D0FF21204B99716378E7
:1043D0000822110019401A4200D0FF211B4BD9714D
:1043E0006378DB079AD5194B1A7801210A431A70B2
:1043F000FF229A71DA715A7808210A435A70D2B2B0
:1044000004210A435A7089E76378DB07DB0F0F4A00
:104410001E437600537802218B431E4356707DE77E
:104420002B691B11094A93716B691B11D37175E7D5
:10443000034808220549023006F06AF97DE7C046C4
:104440005824002082E2473D0000E041B4240020CF
:1044500000007F43C815002070ED0010F52E0020ED
:10446000F0B5DE4657464E464546E0B591B00600EB
:104470008B4690461D001A9C1022002108A806F0C9
:1044800041F980235B020893F8235B0209938023A0
:10449000DB020A93C0231B030A93102208A904A875
:1044A00006F036F942461332059B0393494B0399B4
:1044B0000B404146C9010B43120313430593079A6E
:1044C0000392D200D2088021C9050A430792424ACA
:1044D00013400B4305930CAB9946102204A9180016
:1044E00006F016F922004B4683CB83C21B6813608B
:1044F000280001F083FA394B9E4266D0072128003C
:1045000001F04AFA0023009301332A005946300093
:1045100007F04AF9324BE2681340EA031343E360C1
:10452000304A13402B43802252031343E3602E4B47
:10453000626813402A0613436360052003F06CF998
:104540002A4904F0D1FB05F02EFF824605F084FFD6
:1045500083B29946002B3AD0180005F024FF011CC5
:10456000504605F0B4FE8721C90505F0D0FE05F0E0
:1045700073FFC0B200024B461B04184320601C4B63
:10458000E2681340AD021D43E5601A4AA3681A4071
:1045900081231B041343A360174A1340174A134394
:1045A000A360230042465946300007F04FF93268B5
:1045B000012359468B409A431343336011B0F0BC3A
:1045C000BB46B246A946A046F0BD062197E70020AB
:1045D000D0E7C0467F00FEFFFFFFFF9F0000205096
:1045E000FF7FF0FFE0FF0FFCFFFFFFE000093D0051
:1045F000FF83FFFFFFFF0AFEFFFFF5C1000002106F
:1046000070B582B0104B1B6B9B0701D402B070BD1C
:104610000D4C022323630D4B1E6823680125AB4319
:1046200023600023009301331C220021200007F0A7
:10463000BBF8074B32000021200007F007F9236880
:10464000AB432B432360E1E7000030501C1B0020EC
:10465000041B00200B4B5B68DB03FBD4094B90224F
:1046600012051A61074B5B68DB03FBD4054B002284
:104670001A61044B5B68DB03FBD4024BC02292043B
:104680001A61704700003050254B5B68DB03FBD498
:10469000234B00221A61224B5B68DB03FBD4204BC7
:1046A000802212061A611E4B5B68DB03FBD41C4B95
:1046B000802212061A611A4B5B68DB03FBD4184B8D
:1046C000802212061A61164B5B68DB03FBD4144B85
:1046D000802212061A61124B5B68DB03FBD4104B7D
:1046E000802212061A610E4B5B68DB03FBD40C4B75
:1046F00000221A610A4B5B68DB03FBD4084B0022E3
:104700001A61074B5B68DB03FBD4054B00221A617F
:10471000034B5B68DB03FBD4014B00221A6170473B
:104720000000305010B5254B1A781206244B5B68F8
:10473000DB03FBD4224B1A61204B5A781206204B24
:104740005B68DB03FBD41E4B1A611C4B9A78120684
:104750001B4B5B68DB03FBD4194B1A61174BDA78F0
:104760001206174B5B68DB03FBD4154B1A61134B26
:104770001A791206124B5B68DB03FBD4104B1A61EB
:104780000E4B5A7912060E4B5B68DB03FBD40C4BC5
:104790001A610A4B9A791206094B5B68DB03FBD45A
:1047A000074B1A61054BDA791206054B5B68DB0390
:1047B000FBD4034B1A61FFF7C3FA10BD8C12002023
:1047C0000000305070B582B00D4B1E680D4C236850
:1047D0000125AB4323600023009301331C220021F9
:1047E000200006F0E1FF084B32000021200007F016
:1047F0002DF82368AB432B43236002B070BDC04645
:104800001C1B002000003050041B002010B50A4B78
:104810001B6BDB070ED50123084A1370064A13638E
:10482000282201E0C0461A00531E9BB2002AF9D18B
:1048300009F066FD10BDC04600003050F62E002085
:10484000F0B5D6464F464646C0B582B00D001400BE
:10485000D14B1B78002B3CD1962002F017FACF4E9B
:10486000CF49300006F084FFCE4F3860CE4D09238B
:104870002B60CE4C0133236080239B01CC4A1A432A
:10488000802149001160CB4A1343802292001A60B4
:10489000C949286801F0D2F9C849206801F0CEF969
:1048A0003A68C74B00931C2300213000FFF7D8FD66
:1048B0002868012101F0B2F92068012101F0AEF968
:1048C000B54B01221A7002B0E0BCBA46B146A84608
:1048D000F0BDBC4A1278D1B2BB4E3060002A00D085
:1048E0009CE0BA4A1268904200D39BE0821A013AD7
:1048F000B74EB24200D99AE0002900D09BE0B54BF8
:104900001B78B54A1278934208D0B34A1370002B33
:1049100000D196E0FE208005FBF780FFA94B002226
:104920001A70AE4B5978803A0A435A702A78D106E9
:10493000C90F18780126B043014319709106C90FB9
:10494000480019780136B143014319705106C90F67
:10495000880019780236B14301431970D209D20098
:10496000C9B2082081430A431A706A78D106C90F78
:10497000080119781027B943014319709107C90F2D
:10498000880159783C36B143014359701107C90F6A
:1049900048015978203EB143014359705207D60F60
:1049A00031015A78BA430A435A70206805F000FD75
:1049B0008B4905F0ACFC8B4905F08EFC82466068A3
:1049C00005F0F6FC864905F0A2FC864905F084FC5A
:1049D0008146A06805F0ECFC814905F098FC81490E
:1049E00005F07AFC8046E06805F0E2FC7C4905F0C1
:1049F0008EFC7C4905F070FC071C0021504605F038
:104A0000B7FC00281FD17849504605F0C7FC0028A4
:104A10002DD1504605F020FDC0B215E06B4B18605B
:104A2000002169E7904200D866E7821A60E7674A8A
:104A30001060190060E7FFF7C5FE642002F026F958
:104A400041E7002068E70020644B98700021484649
:104A500005F08EFC00280CD16349484605F09EFC09
:104A600000281AD1484605F0F7FCC0B202E0FF204A
:104A7000EAE70020594BD8700021404605F078FC49
:104A800000280CD15849404605F088FC00281AD16E
:104A9000404605F0E1FCC0B202E0FF20EAE700205A
:104AA0004E4B18710021381C05F062FC00280CD117
:104AB0004D49381C05F072FC002832D1381C05F035
:104AC000CBFCC0B202E0FF20EAE70020434B587164
:104AD0002A789107C90F880059780427B943014300
:104AE00059705107C90F5878033FB84301435970B3
:104AF0001107C90F480059780137B943014359706C
:104B0000D207120FC9B2082081430A435A70374AAC
:104B1000A4235B00D35C052B05D89B00344AD358F3
:104B20009F46FF20D2E76B780222110019401A42FB
:104B300000D0FF21294A91710822110019401A4220
:104B400000D0FF21254BD971BDE66B78DA0704D57B
:104B50002649A52252008A5C00E00022990701D470
:104B6000D2B200E0FF221D498A71082211001940CB
:104B70001A4200D0FF21194BD971A4E66B78DA07ED
:104B800004D51A49A52252008A5C00E000221907C8
:104B900030D4D2B22FE0C046F82E002000003050B2
:104BA000A0ED00101C1B0020141B0020181B00206F
:104BB0002C013050380130500D48001001460010D3
:104BC000041B0020F62E0020D02E002044290020B7
:104BD0003F9C0000F72E0020052F00208C120020A3
:104BE00082E2473D0000E04100007F43C8150020FD
:104BF00088ED0010FF222249CA71022211001940DB
:104C00001A4200D0FF211E4B99715CE66B7802229C
:104C1000110019401A4200D0FF21194A917108224F
:104C2000110019401A4200D0FF21154AD171DB074B
:104C300000D448E61300127801210A431A70FF22BB
:104C40009A71DA715A7840210A435A70D2B22021FF
:104C50000A435A7037E66A78D207D20F08491643DA
:104C600036014B78102293431E434E702BE6236986
:104C70001B11034A937163691B11D37123E6C0466C
:104C80008C120020F0B5DE4657464E464546E0B54C
:104C900091B006008B4690461D001A9C1022002100
:104CA00008A805F02FFD80235B020893F8235B0220
:104CB00009938023DB020A93C0231B030A9310226B
:104CC00008A904A805F024FD42461332059B03936E
:104CD000494B03990B404146C9010B43120313434F
:104CE0000593079A0392D200D2088021C9050A438E
:104CF0000792424A13400B4305930CAB994610228E
:104D000004A9180005F004FD22004B4683CB83C2A2
:104D10001B681360280000F071FE394B9E4266D07C
:104D20000721280000F038FE0023009301332A00F9
:104D30005946300006F038FD324BE2681340EA0372
:104D40001343E360304A13402B4380225203134342
:104D5000E3602E4B626813402A061343636005200C
:104D600002F05AFD2A4903F0BFFF05F01CFB824602
:104D700005F072FB83B29946002B3AD0180005F07B
:104D800012FB011C504605F0A2FA8721C90505F067
:104D9000BEFA05F061FBC0B200024B461B0418438B
:104DA00020601C4BE2681340AD021D43E5601A4AC7
:104DB000A3681A4081231B041343A360174A1340BE
:104DC000174A1343A360230042465946300006F0B9
:104DD0003DFD3268012359468B409A4313433360AB
:104DE00011B0F0BCBB46B246A946A046F0BD0621B4
:104DF00097E70020D0E7C0467F00FEFFFFFFFF9F40
:104E000000002050FF7FF0FFE0FF0FFCFFFFFFE0FE
:104E100000093D00FF83FFFFFFFF0AFEFFFFF5C112
:104E20000000021070B582B0104B1B6B9B0701D4C1
:104E300002B070BD0D4C022323630D4B1E68236826
:104E40000125AB4323600023009301331C22002182
:104E5000200006F0A9FC074B32000021200006F0DC
:104E6000F5FC2368AB432B432360E1E7000030509F
:104E7000181D0020001D0020024B185CC043C0B26A
:104E80007047C046941200200B4B5B68DB03FBD4D9
:104E9000094BA022D2041A61074B5B68DB03FBD4E9
:104EA000054B00221A61044B5B68DB03FBD4024B09
:104EB00000221A617047C04600003050044B1A7837
:104EC0001206044B5B68DB03FBD4024B1A6170478C
:104ED000F42E00200000305010B5144B1A78120642
:104EE000134B5B68DB03FBD4114B1A610F4B5A78F1
:104EF00012060F4B5B68DB03FBD40D4B1A610B4BA7
:104F000002229A5612060A4B5B68DB03FBD4084B5D
:104F10001A61064B03229A561206054B5B68DB03A7
:104F2000FBD4034B1A61FEF70BFF10BD1C1D0020C4
:104F30000000305010B50A4B1B6BDB070ED5012368
:104F4000084A1370064A1363282201E0C0461A007B
:104F5000531E9BB2002AF9D109F08AF910BDC04650
:104F600000003050022F002070B582B00D4B1E683B
:104F70000D4C23680125AB432360002300930133CC
:104F80001C220021200006F00FFC084B32000021FB
:104F9000200006F05BFC2368AB432B43236002B088
:104FA00070BDC046181D002000003050001D0020BC
:104FB000F0B5DE4657464E464546E0B585B016008C
:104FC0007E4B1B78002B3DD1962001F05FFE7C4E7E
:104FD0007C49300006F0CCFB7B4F38607B4D0923C9
:104FE0002B607B4C0133236080239B01794A1A4359
:104FF000802149001160784A1343802292001A6090
:105000007649286800F01AFE7549206800F016FEFF
:105010003A68744B00931C2300213000FFF732FEE6
:105020002868012100F0FAFD2068012100F0F6FD5A
:10503000624B01221A7005B0F0BCBB46B246A946CD
:10504000A046F0BD684A1278D4B2684D2860002AA4
:1050500000D09DE0664A1268904200D39CE0821A1C
:10506000013A644DAA4200D99BE0002C00D09CE09C
:105070005D4B00221A700D78EB06DB0F5E4CDA01F7
:1050800020787F23034013432370AB06DB0F0122FC
:1050900091469A01237840208343134323706B0683
:1050A000DB0FDA006378383880468343134363703C
:1050B000EA099200DBB204388346834313436370EA
:1050C0004B78D907890F62780238824682430A43B7
:1050D00062705A07D20F6178484681430A43627072
:1050E000DA06D20F110122781027BA430A43227040
:1050F0009A06D20F5001627820218A4302436270DF
:105100001A07D20F10016278BA43024362709B07FC
:10511000DB0F5B0122788A4313432370A437306886
:105120007843364903F0B8FD5A3805F041F9039049
:1051300070687843314903F0AFFD5A3805F038F90B
:10514000061C039805F056F9A070301C05F052F9C2
:10515000E070AB07DB0F9A00237859468B4313436B
:1051600023706B07DB0F5A00237851468B431343A0
:1051700023702B07DB0F227849468A4313432370A1
:10518000ED072D0FDBB2424693431D43257052E7D6
:10519000174B1860002468E7904200D865E7821A30
:1051A0005FE7134A10601C005FE7154805F016FC26
:1051B000FFF7DAFE642001F069FD3CE7032F0020D1
:1051C00000003050D8ED0010181D0020101D0020E8
:1051D000141D00202C01305038013050354F001084
:1051E000254E0010001D0020022F0020D42E00208C
:1051F000482900203F9C00001C1D0020FF0F0000DC
:10520000D0ED001070470000F8B5CE46474680B597
:10521000030002789207D20F554801278478BC43D7
:10522000224382701A781207D20F920084780425E4
:10523000AC43224382701A785207D20FD20086788C
:105240000824A046A643324382701A78D207920FF0
:10525000944682780226B2436446224382701A78CA
:10526000D2090478BC43224302701A785206D20F46
:1052700052000478B443224302701A78D206D20F47
:10528000D20091460478424694434A462243027033
:105290001A789206D20F92000478AC43224302702F
:1052A0005A789206D20F4478BC43224342705A780F
:1052B000D206D20F52004778B7433A4342709A78E9
:1052C0009207D20F120146781027BE433243427034
:1052D0009A78D207960E42781037BA43324342701A
:1052E0005A78D20996004278AA43324342705A78DB
:1052F0005206D20FD20045784446A5432A43427055
:105300005A785207D20F920104784025AC432243C9
:1053100002705A78D207540E8278AA4322438270D0
:105320005A789207D20FD20185787F2425402A43EC
:1053300082705B781B07DB0FDB010278144023438C
:1053400003700B88C3701B0A03718B8843711B0A9F
:1053500083710B89C3711B0A03728B8943721B0A09
:105360008372FCF78FFEC0BCB946B046F8BDC0469C
:10537000BC240020014B18787047C046142F002031
:10538000014B18707047C046142F002010B5041E42
:105390000BDC002013E06420002101F04BFC012015
:1053A0000021404207F03CFA013C002008F0A6F939
:1053B000002801D1002CEEDC002C01D0012010BD12
:1053C0000020FFF7DDFF0020F9E7000010B50D48D1
:1053D00005F0D4FA0C4C40220021200005F092F98F
:1053E000F1232370FA200001FFF7D0FF002800D13D
:1053F00010BD40220449002008F054F9002008F0B4
:105400006FF9F5E728EF00107C22002010B590B06E
:105410000C00324B1860324B1B68984241D2C31AC1
:10542000013BFA22920193423FD20023002B36D057
:10543000002300933C22002101A805F063F9E0233A
:105440006A46137022681311002A34DBFF2B00DD3B
:10545000FF23DBB26A46537062681311002A2CDB0B
:10546000FF2B00DDFF23DBB26A469370A2681311A5
:10547000002A24DBFF2B00DDFF23DBB26A46D3705A
:10548000E2681311002A1CDBFF2B00DDFF23DBB2D7
:105490006A4613711348FFF779FF002813D110B043
:1054A00010BD984205D9C31ABBE70D4B1860012304
:1054B000BCE70023BAE70023CCE70023D4E70023AE
:1054C000DCE70023E4E740226946002008F0EAF820
:1054D000002008F005F9FEF733FCE0E7D82E0020A5
:1054E0004C2900208813000070B5040003780F2BAE
:1054F00007D8002B35D00F2B33D89B00B64AD35892
:105500009F46BE2B09D8A12B2BD35F33DAB21D2ABD
:1055100027D89300B14AD3589F46F12B21D1B048E8
:1055200005F02CFAFBF70CFCFBF710FC19E0AD487A
:1055300005F024FAAC48BE23037001300222AB49C7
:1055400005F0E6F80020FFF71BFFFA200001FFF747
:105550001DFF002806D11E2001F098FB0120FFF757
:105560000FFF70BD4022A049002008F09BF80020EA
:1055700008F0B6F8EFE79E4805F000FAFCF700FFE8
:10558000EFE79C4803F05CFB03000021080098470C
:10559000954BAF221A70A53A5A7000219970A0312C
:1055A000D9701A710020FFF7EBFEFA200001FFF717
:1055B000EDFE002806D11E2001F068FB0120FFF758
:1055C000DFFECEE740228849002008F06BF800207B
:1055D00008F086F8EFE7884805F0D0F9FEF7C2FB3F
:1055E000814B03221A70FA200001FFF7CFFE00283A
:1055F000B7D040227C49002008F054F8002008F081
:105600006FF8AEE77D4805F0B9F9FEF7E3FB764B9E
:10561000A3221A70FA200001FFF7B8FE0028A0D0DC
:1056200040227149002008F03DF8002008F058F8A9
:1056300097E7734805F0A2F9FEF704FCFEF74AF974
:10564000FEF76CF98DE76F4805F098F92379A27899
:1056500012041902E3781B061143194363783033AF
:105660009B00694AD31859606078FBF750FCFBF740
:105670004AFC76E7654805F081F95B4C4022002141
:10568000200005F03FF8A1232370002217E011004D
:10569000303189005C4B5B1859685300D318DBB27A
:1056A0000133DBB250480C02240EC4545C1C0D0EB6
:1056B000055502330904090EC1540132D2B20B2A36
:1056C000E5D9FA200001FFF761FE002800D148E784
:1056D00040224549002007F0E5FF002008F000F8CF
:1056E0003FE74B4805F04AF9A17801202056FDF725
:1056F0008DFA36E7474805F041F901202056FDF7BD
:1057000097F92EE7444805F039F96078FF2805D16C
:10571000A1783D4AA5235B00D15422E7FDF770F93B
:105720001FE73E4805F02AF901202056FDF710F941
:1057300001202056FDF77CF913E7394805F04EF9B2
:10574000294C40220021200004F0DCFFAA23237012
:105750002D4A4A23FF33D35C6370FA200001FFF720
:1057600015FE002800D1FCE640221F49002007F06A
:1057700099FF002007F0B4FFF3E62A4805F02EF960
:105780006078FBF7F9FAECE6274805F027F9164CA4
:1057900040220021200004F0B5FFAB2323701A4AF9
:1057A0004C23FF33D35C6370FA200001FFF7EEFD5A
:1057B000002800D1D5E640220B49002007F072FFF7
:1057C000002007F08DFFCCE6184805F007F9607857
:1057D000FBF7C2FAC5E6C04684F10010C4F1001020
:1057E00068F1001040EF00107C220020941300208C
:1057F00068EF00105542000094EF0010BCEF00105D
:10580000E4EF001008F00010C815002028F0001088
:1058100048F0001068F0001088F00010A8F00010A8
:10582000D0F00010F4F0001018F1001040F100105A
:1058300000117F380002054B984204DC044B98426B
:1058400002DA180000E0014800B27047FD7F000056
:105850000380FFFFF8B505000E000868FFF7E8FFBA
:105860004C4CE0807068FFF7E3FF2081B068FFF7E1
:10587000DFFF6081F068FFF7DBFFA0812B78DB079B
:10588000DB0F0120A27882431343A3702B789B0780
:10589000DB0F5B00A2780226B2431343A3702B7880
:1058A0005B07DB0F9B00A27804218A431343A3709C
:1058B0002B781B07DB0FDB00A27804318A431343EC
:1058C000A3706B789B06DB0F5B01A17820229143CC
:1058D0000B43A3706B78DB06DB0F1B01A77810214D
:1058E0008F433B43A3706B785B07DB0F5B00E7786C
:1058F000B7433B43E3706B78DB07DB0FE678864307
:105900003343E3702B78DB06DB0F1B01E078884321
:105910000343E3702B789B06DB0F5B01E178914337
:105920000B43E3702B785B06DB0F9B01E278402092
:1059300082431343E3702B78DB09D901E3787F229C
:1059400013400B43E3706B785B06DB0F9B01A17880
:1059500081430B43A3706B78DB09DB01A1780A401C
:105960001A43A2706B780222110019401A4200D02B
:10597000FF21084B19716B780822110019401A4257
:1059800000D0FF21034841711421FBF7D7FDFEF73A
:10599000D7F9F8BDC824002010B58300084A944602
:1059A00063441C6840226240C0241440802252019B
:1059B00013431C60C000034B9C466044416010BD13
:1059C00004C001400040014080000B4B9C466044F5
:1059D00000290DD00823002A0CD0042213430268AA
:1059E00053400C2213408022520110430360704741
:1059F0000023F0E70022F1E704C0014010B50123C5
:105A00008340D0221206936293610521FFF7C4FF01
:105A100010BD0000034B1B6802201840431E984134
:105A2000C0B2704700C00640EFF3108072B6034B5F
:105A30001B68002BFBD0BFF35F8F70472C0100D099
:105A4000BFF35F8F024B00221A6080F3108870470B
:105A50002C0100D0F8B506000C001500FFF7E4FF9C
:105A6000E308F718F15C07222240012393400B4220
:105A700005D1DBB20B433B70FFF7E2FFF8BD21001D
:105A8000280002F01DF8F0B583B006000191140063
:105A90001F00FFF7C9FF00E00134BC420CD8E30847
:105AA000F518F35C0721214001228A401A42F3D104
:105AB000D2B21A432A7001E001246442FFF7C0FF0A
:105AC000002C02DB200003B0F0BD019B002BF9D0BD
:105AD000089801F0F5FF0000002307E0054A9A1836
