:020000041000EA
:1000000000B5324B212058609868022188439860DF
:10001000D860186158612E4B002199600221596106
:100020000121F02299502B49196001219960352056
:1000300000F044F80222904214D00621196600F024
:1000400034F8196E01211966002018661A6600F04E
:100050002CF8196E196E196E052000F02FF8012189
:100060000842F9D1002199601B49196000215960AB
:100070001A491B48016001219960EB211966A021F2
:10008000196600F012F800219960164914480160C1
:100090000121996001BC002800D000471248134993
:1000A000086003C880F30888084703B5996A0420EC
:1000B0000142FBD001200142F8D103BD02B5186610
:1000C0001866FFF7F2FF186E186E02BD00000240BE
:1000D000000000180000070000035F00212200005C
:1000E000F4000018222000A00001001008ED00E03C
:1000F00000000000000000000000000074B24E7A12
:1001000000200420F7010010C3010010C5010010F9
:10011000C1010010C1010010C1010010C101001097
:10012000C1010010C1010010C1010010C701001081
:10013000C1010010C1010010C9010010CB01001065
:10014000CD010010CD010010CD010010CD01001037
:10015000CD010010CD010010CD010010CD01001027
:10016000CD010010CD010010CD010010CD01001017
:10017000CD010010CD010010CD010010CD01001007
:10018000CD010010CD010010CD010010CD010010F7
:10019000CD010010CD010010CD010010CD010010E7
:1001A000CD010010CD010010CD010010CD010010D7
:1001B000CD010010CD010010CD010010CD010010C7
:1001C00000BE00BE00BE00BE00BE00BEEFF3058054
:1001D000103800BEF2EB8871B0320110DC32011031
:1001E0003402001090A31AE700201F49086006C8D7
:1001F00081F3088810471D48006800282FD10DA4FE
:100200000ECC002902D000F012F8F9E71849194A7B
:10021000002000E001C19142FCD1174988471749ED
:1002200088471749884700BEFDE701C901C29A42C5
:10023000FBD37047DC320110C000002030170020D3
:100240004C49011000000420000004204C4901101A
:10025000001004200010042000000000704709482E
:100260000AF07EFC0047000008ED00E0000000D02E
:100270005017002010310020E998001049060010A6
:10028000A59800105756000006005250ABB36053BB
:100290003829011006005250861C0302482901101B
:1002A000060052505422A29D5C29011005005250B4
:1002B000DE65F4684C490110F8B5C04610B5064C2F
:1002C0002378002B07D1054B002B02D0044800E017
:1002D00000BF0123237010BD501A00200000000051
:1002E000B0020110044B10B5002B03D003490448A1
:1002F00000E000BF10BDC04600000000541A0020FE
:10030000B002011010B5112000F0D8FC102000F050
:10031000D5FC122000F0D2FC132000F0CFFC052009
:1003200000F0CCFC162000F0C9FC152000F0C6FC43
:100330000C2000F0C3FC142000F0C0FC092000F0E9
:10034000BDFC0A2000F0BAFC082000F0B7FC0B202E
:1003500000F0B4FC1E491F480DF002FB01210620ED
:1003600007F01CFA0121072007F018FA01210420E8
:1003700007F014FA182007F05BFAD0242406802333
:100380005B0463626361172007F052FA80231B0449
:10039000636263610DF0ECF81F211B2007F0FEF98A
:1003A000002200211B2007F011FA00211B2007F07A
:1003B00027FA1F211A2007F0F1F9002200211A2044
:1003C00007F004FA00211A2007F01AFA10BDC046FF
:1003D000C0C62D0000C00340F0B5D6464F46464685
:1003E000C0B5D02212065468640C01231C4061423F
:1003F0004C4101210C40240105781026B446B54338
:100400002C4304705468240C1C4065426C410C4021
:10041000640105781036B5432C4304705468A40C6D
:100420001C4065426C410C40A40105782036B54360
:100430002C4304705468E40C1C4065426C41E40198
:1004400006787F2535402C4304705468240A1C40EC
:1004500065426C410C40A40005780426B146B543C2
:100460002C4304705468E40A1C4065426C410C4003
:10047000E40006780825AE43344304705468A40AA7
:100480001C40664274410C4064000678B046022667
:100490004746B7433C4304705468640A1C40270035
:1004A0007C427C410C4007789F433C430470546875
:1004B00064091C4027007C427C410C402401A24678
:1004C00047786446A7433C00574627434770546823
:1004D000240D1C4027007C427C410C40A400A04617
:1004E00047784C46A74344463C4344705468240B29
:1004F0001C4067427C410C4047789F433C4344701A
:100500005468A40D1C4067427C410C40640047784D
:10051000B7433C4344705268520D13405A42534112
:100520000B40DB00E2B2AA4313434370E0BCBA467F
:10053000B146A846F0BD0000F0B5D6464F46464647
:10054000C0B584B0040003AF3B4B1A883A80002347
:10055000BB7002AE3280B37001AD2A80AB706946C9
:100560000A808B70D0231B06984680235B04994633
:1005700043464A469A61314B9A4603233A00D021BA
:1005800050460FF0FDFD43464A465A619A610323E7
:100590003200F02150460FF0F3FD43464A465A61BF
:1005A00080231B04994643464A469A6103236A46C0
:1005B000F02150460FF0E4FD43464A465A619A61E5
:1005C00003232A00D02150460FF0DAFD43464A4665
:1005D0005A613B785B027A785200E02109010B40B6
:1005E0001343BA78D20913432360327852027378E6
:1005F0005B000A401A43B378DB091A4362602A7829
:1006000052026B785B000A401A43AB78DB091A434D
:10061000A2606B461B785B026A46527852000B4020
:1006200013436A469278D2091343E36004B0E0BCF6
:10063000BA46B146A846F0BDC802011000C003404A
:1006400010B500F04BF810BD00B583B00CF06AF99E
:10065000642008F035FA0D480CF028F9052000F068
:100660002DFBD0231B065B689B0608D501A8084B11
:100670009B88038000F03AFA002003B000BD0548D3
:100680000AF06EFA0300002108009847B00201103A
:10069000C802011055420000002813D1FF231B049B
:1006A0000A4A126853401B0C1B04094A13600028B5
:1006B0000ADB0004074B1B685840000C0004064B83
:1006C000186070470023EAE70020F2E78400054045
:1006D000841005405C0005405C10054010B5FA210F
:1006E000104A490100F023FF00280CD00E4B1B6874
:1006F0000E4A1268934207DA14330B4A13600A4B0E
:100700001868FFF7C9FF10BD0A3B074A1360084A83
:100710001268934201DC044B1A60034B1A68034BC6
:100720001A60ECE74C2D00207C210020782100206D
:100730008421002070B54468C568291C201C0BF07A
:10074000C5FD002800D0251CFE218905281C0BF0C2
:10075000BDFD002801D0FE25AD050D49281C0BF07C
:1007600066FD0BF011FE84B20021281C0BF0AEFDDB
:10077000002803D0074B18682418A4B2064B1C604D
:10078000064B1B689C4201DD044B1C6070BDC046DB
:100790000000484280210020842100207821002090
:1007A00070B51C4B18780BF096FD051C1A4B186899
:1007B0000BF096FD041C011C281C0BF018FD1749BA
:1007C0000BF01FFD061C00250FE0201C0BF0AAFDFE
:1007D000FFF762FF311C201C0BF00EFD041C08F01B
:1007E000D3FF012008F06CF9013528000BF078FDEB
:1007F0000A490BF055FD0028E7D1064B1878FFF7A2
:100800004BFF642008F05CF908F0BEFF0020FFF702
:1008100043FF70BD60140020802100200000C84309
:10082000F0B5C64600B582B0192007F001F81D20CA
:1008300006F0FEFFD0231B06802292045A6280221B
:1008400092055A620421192006F0A8FF04211D20F8
:1008500006F0A4FF324F04233B60324D02332B607D
:10086000314BFF221A6688215A50304C23681B0CEA
:100870001B042F4803602A6893009B189A002D4B95
:100880009C4662441168FF231B0498465940090C9A
:10089000090480267601324311603A689100891874
:1008A0008A00214B9C466244176801210B00BB4320
:1008B000324313602A689500AD18AA006244156897
:1008C000A943164331601C4A1268434653401B0C2F
:1008D0001B041A4A136023681B0C1B040360962038
:1008E000002108F0C1F86B46DC1D991D200000F0C6
:1008F00061F82378124A13601A1CCD2B00D9CD223F
:10090000323210490A70002B02D10D4A13600B706D
:10091000AF20400008F0D4F802B080BCB846F0BD6B
:10092000C82D002074280020000005405C00054010
:100930005C1005400C000540840005408410054013
:1009400080210020601400200020704770470000C4
:1009500010B5041C0348046041608260C360FFF767
:10096000E9FE10BD6C2E002010B512E00C4B9A6A07
:100970000C4B1A600C480FF00BFC00F0E9FB094C23
:10098000206804F0C3FC206802F068FE2068FFF7CE
:1009900057FE064904480FF03BFC0028E6D1ECE77F
:1009A000004005407C1F0020F01600207C22002023
:1009B00070470000044B7A22FF329A5C02707C225E
:1009C000FF329B5C0B7070475018002070477047D7
:1009D00070470000014B002018567047611400203A
:1009E00010B50020FFF7F2FF0020FFF7F0FF002214
:1009F0000021002008F01AFF10BD000010B52F4B99
:100A00001B78002B30D02E492E480FF001FC002817
:100A100032D12D48FFF7E0FC2C4B1B78002B33D153
:100A200003F030F92A4C2068274904F0EFFC2068D5
:100A300000F02EFD06F070F8002832D0244C20681B
:100A4000244903F0DBFB2068234A244906F090F890
:100A5000234B1B785BB2012B2AD008F095FE1C4B70
:100A60001868FFF7A5FF10BD00211E4808F0D2FE50
:100A7000124B01221A70C6E71B4B9A6A144B1A607C
:100A800010480FF085FBC4E70F48FFF7A1FF08F0FF
:100A90007BFE0F4C206800F0FBFC206800F0F9FCA6
:100AA000E1E70B4B18680D4A0B4900F083FCCFE7D8
:100AB000074B186800F0EDFCCFE7C046003100207E
:100AC00078220020F0160020B81A0020DC30002028
:100AD0007C1F0020801A0020C41A0020A01A0020C9
:100AE000611400204C1D00000040054070B5051E3B
:100AF00000D1C4E000F016FD0400FFF703FC6048DD
:100B0000FFF76AFC00F080FB002831D05C4E330018
:100B10005C4A5D495D4804F00FFA04F04BFCB37881
:100B2000DB062AD4FFF77CFE01F018FCE3B2012BB0
:100B300029D0022B2CD001242C57631C2FD000224B
:100B4000AA56534B1A704E4B1B789A062BD45A0652
:100B50003BD4DA063BD45AB2002A3ADB5A073AD4DD
:100B60000A221A40022A38D01B071DD503241BE095
:100B70003221484800F088FCC8E706220021464898
:100B80000BF058FDCEE7424B02221A700024DAE740
:100B900023041B0F3E4A13702405240FD3E73F4B59
:100BA00002241C57CBE706243C4AE2235B00D65CB8
:100BB000374B1B785BB2013311D06425E3B2062BAF
:100BC00040D8A300364AD3589F460124ECE70024BE
:100BD000EAE70224E8E70524E6E70424E4E700F076
:100BE0007DFC002804D12A4B02221A704625E5E735
:100BF000642000F056FC264B01221A706425DDE7C4
:100C00002848322100F040FC2900300000F03FFC71
:100C10001F4B00215956200000F0DCFB184B9B783D
:100C20009B0727D4204A1649200002F0D3FE0CF07F
:100C300093F91E480CF07EF9FFF7E0FEFCE7FF2079
:100C40000006DEE71A48DCE7FF200002D9E7104B78
:100C500000221A70FF2000041925D2E70C4B002255
:100C60001A7014480F25CCE7094B00221A7012485D
:100C70001925C6E7094B9C7000F0C0FAD2E770BD99
:100C8000B81A0020801A0020A01A0020901A002014
:100C9000611400200000FF4DCC19002050180020E6
:100CA000D002011000F115FFC41A002069090010DC
:100CB00000A1A1A100FF61000000FFE610B5040043
:100CC00006F0B6FD00220121200006F07FFD012381
:100CD000A340D0221206936210BD0000094ABD2332
:100CE0005B00D35C1A1C312B00D83222054BBD218E
:100CF00049005A54DA787A39FF398A43DA709B22EC
:100D00001A7270475018002070B5050014006A4B25
:100D10001380012900D070BD0223C3569370D01CEC
:100D2000E91C06220BF08CFCEB68E3602B69236165
:100D30006B696361AB69A36120001C3029001C3121
:100D400020220BF07DFC20003C3029003C31202289
:100D50000BF076FC20005C3029005C3120220BF087
:100D60006FFC20007C3029007C3120220BF068FCD5
:100D700020009C3029009C3106220BF061FC2000F1
:100D8000A2302900A23106220BF05AFC2000A83024
:100D90002900A83130220BF053FC20002930FF300D
:100DA0002900D83110220BF04BFC20003930FF30E5
:100DB0002900E83110220BF043FC20004930FF30BD
:100DC0002900F83110220BF03BFC20005930FF3095
:100DD00029000931FF3110220BF032FC200069306C
:100DE000FF3029001931FF3110220BF029FC942328
:100DF0005B00EA5C5033E2542A23FF33EA5C7A2337
:100E0000FF33E2544F3BEA5C5033E2542C23FF3370
:100E1000EA5C7C23FF33E25420007D30FF30290060
:100E20002D31FF3106220BF00BFC20008530FF3006
:100E300029003531FF3120220BF002FC2000A530C3
:100E4000FF3029005531FF3120220BF0F9FBBA2386
:100E50005B00EA5C5033E2542000C930FF302900C7
:100E60007931FF3118220BF0EBFBC8235B00EA5C01
:100E70005033E2544E3BEA5A5033E2524E3BEA5A68
:100E80005033E2524E3BEA5A5033E2524E3BEA5A5A
:100E90005033E2524E3BEA5A5033E2524E3BEA5A4A
:100EA0005033E2524E3BEA5A5033E2524E3BEA5A3A
:100EB0005033E2522FE7C04602A0FFFF064B984294
:100EC00004D0064B984203D1022070470120FCE772
:100ED00001204042F9E7C04601A0000002A0000046
:100EE00010B512480BF012FD002407E0104B5B1800
:100EF000D97810480BF00AFD0134E4B2052C0DD866
:100F00000CF0FEFA2100C0B2094A1219D070002C70
:100F1000ECD1130001229043D870E7E7044B9B22E9
:100F20001A720A200BF08EFC10BDC046EC020110B4
:100F300050180020FC020110F0B5DE4657464E4620
:100F40004546E0B56F4CA544FC256D002A00002104
:100F500002A80BF06FFB6C4B02AA1380059B019358
:100F6000DB0FDB078022120113430593069B0193DD
:100F7000DB0FDB0713430693079B0193DB0FDB07B4
:100F800013430793089B0193DB0FDB071A43089277
:100F90005E4F0A975E4E0B965E4C0C945E480D9029
:100FA0005E490E915E4A0F925E4B10931297139614
:100FB000149415901691179218935B4B19931A93EA
:100FC0001B931C931D931E931F93209321938022A8
:100FD00002A98B5004328B5004328B5004328B5058
:100FE00004328B5004328B5004328B50FF231B048D
:100FF0009A46A8230A005146D1504C4B9B46AC233D
:101000005946D1504A4B9946B0234946D150FF2307
:101010001B069846B4234146D150FF2636020433BE
:10102000D6500433434A02A9CA50434F04330A003E
:10103000CF5004335146D15004334146D15004338C
:10104000D65004334946D1500433D6503B4BD822B6
:1010500002A98B5004328B5004328B5004328B50D7
:10106000E823CF50B63B7A22FF328B5401328B54A7
:10107000173AFF3AF121490002A842520231435285
:10108000023142528532FF32010083522C4C2A0039
:1010900020000BF0D5FA002002F062FC012002F0E3
:1010A0005FFC032002F05CFC042002F059FC0520E8
:1010B00002F056FC20009C30062200210BF0BAFA08
:1010C0002000A230062200210BF0B4FAFFF708FF3F
:1010D000E4235B005246E25004335A46E2500433A4
:1010E0004A46E25004334246E2500433E6500433A9
:1010F000E75081239B009D44F0BCBB46B246A94605
:10110000A046F0BDFCFDFFFF02A0FFFF000034423F
:101110000000B44200000743000034430000614374
:101120000000874300809D43000016440000FF4DEF
:101130000000FFE600F115FF00FF610000A1A1A182
:1011400050180020014B18787047C0460A31002023
:1011500070B5204CA544204B1B78002B03D1802375
:101160005B019D4470BD0BF00FFFEFF3108672B66C
:101170001A4B1B78002B24D1194C00230093194AD9
:10118000002101A80BF056FAFC22520016496846CD
:101190000BF056FA80256D01290020000FF040F871
:1011A0002A00694620000FF013F886F310880BF030
:1011B000F5FE0E4B1B78002B06D1074B00221A7050
:1011C000CDE796246403D8E705F066FD074B0022BF
:1011D0001A70F2E700F0FFFFF63000200A3100201D
:1011E00000D01200FC0F0000501800200131002038
:1011F000014B01221A70704701310020014B01227E
:101200001A707047F630002070B5394B1888394B8A
:101210001D88FFF753FE04002800FFF74FFE05006E
:10122000631C0BD0022C0FD0022D0DD0012C2CDD15
:10123000012D2ADD0023002200262CE0431CF1D1E1
:1012400000230022012626E0022C05D0022D0FD01B
:101250000023002200261EE0FC22520024492648DA
:101260000BF0EEF9254B00221A700023002612E045
:10127000FC2252001F4920480BF0E2F91F4B0122CB
:101280001A7000230022002605E00123012C15DD41
:10129000DBB201220026002E12D1002A23D0002B1F
:1012A00018D1164B01221A70134A21001048FFF77B
:1012B0002BFD0020FFF7A2FF300070BD0023E7E701
:1012C0000E4B00221A70FFF737FE0020FFF796FF43
:1012D0000026F1E7094B00221A70074A2900054849
:1012E000FFF712FDE5E7FFF7F9FC0126E4E7C0464A
:1012F00000D0121000C01210501800200A31002037
:1013000010B5031C642800D9642303497A22FF32F4
:101310008B54FFF785FA10BD5018002010B5022835
:1013200017D008D800280DD001280FD10B4AF2237E
:101330005B00D1520AE0032808D1084AF4235B007D
:10134000D15203E0054AF1235B00D15203F086FA43
:1013500010BD024AF3235B00D152F7E7501800207A
:1013600030B50F4C40004508E068C00FC007284367
:10137000E060490048082169C90FC907014321619C
:10138000520051086269D20FD2070A4362615B00C2
:101390005A08A369DB0FDB071343A36130BDC046C6
:1013A00050180020062800DD0020014B987070477F
:1013B0005018002010B5034B1B68002B00D0984735
:1013C00010BDC0466C1D0020014B00201856704710
:1013D000E730002010B588B00400234B18700C22B1
:1013E000002105A80BF026F91022002101A80BF01E
:1013F00021F9E3B2062B03D8A4001C4B1B599F46CE
:101400001B4B1C4A1A60002000F058F908B010BDB0
:10141000174B184A1A60062000F050F9F6E7144BF3
:10142000144A1A60012000F049F9EFE7104B114A05
:101430001A60022000F042F9E8E70D4B0E4A1A60EC
:1014400001AA05A90020FFF7B5FFDFE7084B0B4A0B
:101450001A6001AA05A90020FFF7ACFFD6E7044BEC
:10146000074A1A60D2E7C046E7300020280301107F
:101470006C1D00206D1700105D5D00105D67001091
:10148000A9690010704770477047704770477047F0
:101490007047704710B50020FFF798FAFFF7A0FAE1
:1014A00010BD00B583B023280AD8C0B20538C0B239
:1014B0007F23184001AB04221A70587003B000BD9E
:1014C000AF235B00984200D9180028380A2109F0A0
:1014D00073FBC0B21F30C0B2EAE7000010B502488B
:1014E0000BF0E4F9012010BD44030110072804D8D3
:1014F0008000024B9C466044016070470C800540B0
:1015000010B5072802D90024200010BD8000044B2C
:101510009C466044046800210520FFF7E7FFF3E7DD
:101520000C80054010B50520FFF7EAFF10BD1060E4
:101530005368834205D9C31A013B8B4205D2002070
:101540007047834204D2C31AF7E750600120F7E7DF
:101550000020F5E730B51860002A0BD15C688442A2
:101560000BD9041B013C0025002D0BD1A14209D948
:10157000100030BD58600020FBE7844205D2041BF8
:101580000025F1E758600120F3E71000F1E70000C3
:1015900010B5FFF719FF022801D0024810BD02481C
:1015A000FCE7C0467C0301106C04011010B500205C
:1015B0000DF074FD10BD000010B5102106480EF0AE
:1015C00037FE002800D110BD044B01221A700248DA
:1015D0000EF0DEFDF7E7C046F8160020FE300020D2
:1015E00010B5102106480EF023FE002800D110BDD2
:1015F000044B00221A7002480EF0CAFDF7E7C046FD
:10160000F8160020FE30002070B5050064210D485A
:101610000EF0A6FD041E09D10B4B22000B49280039
:10162000FFF798FF051E08D1200070BD084B1C78FD
:10163000E4B204480EF0ACFDEEE7FFF7BDFF2C006E
:10164000F2E7C046F81600207C2E0020A08601009C
:10165000FE300020037801330370044B1B785BB22B
:10166000022B01D0024870470248FCE738150020E1
:10167000B0050110E80601100C4B18600C4B9842A5
:101680000BD00C4B98420CD0FA235B00984200D050
:101690007047094B01221A60FAE7074B04221A60CF
:1016A000F6E7054B08221A60F2E7C046AC2200209C
:1016B000461000008D200000A422002010B5040078
:1016C000002001F0C5FF022C2CD0062C1DD0012CCF
:1016D00010D0012001F0BCFF1848FFF7CDFF184BD8
:1016E000184A1A60184B194A1A60194B1C700EF0F0
:1016F000E1F810BDFA204000FFF7BEFF104B154A7D
:101700001A60114B144A1A60EFE7012001F0A0FFA4
:101710001248FFF7B1FF0A4B114A1A600A4B0B4AF5
:101720001A60E2E7FA204000FFF7A6FF044B0D4ADB
:101730001A60054B0C4A1A60D7E7C0468D2000009E
:10174000A8220020AD690010B0220020AD150010C5
:101750003815002041740010091E001046100000CA
:10176000C9750010F154001095220010F8B506005C
:101770000C0015000120002140420DF003F8234B1E
:101780009F6C234B1B68BB421CD2FB1A214A126878
:101790009A4202D8204B01221A70204B1968204A25
:1017A0003000FFF7C4FE002802D01E4B01221A7041
:1017B0001D4B1B78002B0AD11C4B1B6898471A4BFA
:1017C0001870F8BDFB1A1A4A94466344DEE73000ED
:1017D000FFF71AFF0028F4D00F4B1B78002BF0D036
:1017E000104B1B78002BECD0094B1F6000230A4ADA
:1017F00013700C4A13700C4A1370FFF7F1FE0D4B77
:101800001B68290020009847DBE7C0460000115004
:1018100048290020A422002009310020AC22002009
:10182000CC3000200F310020FF300020B0220020FB
:10183000FF070000A8220020084B1B785BB2022B98
:1018400007D0062B07D0012B01D00548704705486B
:10185000FCE70548FAE70548F8E7C04638150020D8
:10186000700E0110F8050110D4060110E8160110E1
:10187000084B1B785BB2022B07D0062B07D0012B3D
:1018800001D0054870470548FCE70548FAE70548D8
:10189000F8E7C04638150020300E0110C8050110C9
:1018A000A8060110BC1601100020704710B5134B9C
:1018B0001B785BB2022B13D0062B18D0002B05D05F
:1018C0000B78002B0FD1FFF777FE0CE00B78302B55
:1018D00003D0212B01D0812B05D1FFF76DFE02E053
:1018E0000B78212B00D010BDFFF766FEFBE70B78CD
:1018F000012BF8D1FFF760FEF5E7C0463815002050
:1019000070B504AC25882E4C247864B2012C2DD0FF
:10191000022C12D0002C00D070BD0029FCD1002A6E
:10192000FAD11878102804D02A00190001F0ACF878
:10193000F2E7981C00F0D8FDEEE70029ECD1002A70
:10194000EAD11A78112A05D0132AE5D11D480AF0E8
:10195000DDFFE1E75B78002B06D01B490B1C1B4A1F
:101960001B48FEF7F5FFD7E70021F7E70029D3D1A1
:10197000002AD1D11A78002ACED15A78082ACBD1A0
:10198000DA78002A02D11979002911D01B79101CAC
:101990009A4200D2181CC0B20AF09DFC0D490AF010
:1019A00030FC011C031C094A0948FEF7D1FFB3E7CC
:1019B0000020031C021C011CFEF7CAFFACE7C04656
:1019C00038150020300501106666263F00002042D1
:1019D0000000F04200007F43064B1B785BB2022BF5
:1019E00003D0062B03D1044870470448FCE70448A1
:1019F000FAE7C04638150020FC1601103C0601101D
:101A0000840E011070B5EE2824D0002825D0800067
:101A10001E4BC55828000EF073FBC0B21F2800D91A
:101A20001F20002327E05A1C194CA15C0902E25C2C
:101A30000A4344001749625202330130112BF2D994
:101A4000154A144B13CB13C211001A680A609B8805
:101A50008B8019E000200023F0E70C4B196802226C
:101A60000E480AF0EDFD012007E05A1CEC5C510025
:101A7000094BCC52D3B29842F7D801304000C02372
:101A80009B001843044B1880034870BD6814002065
:101A9000740501106C1A00208C1D00208E1D002082
:101AA00000B591B04022694600200DF085FD002070
:101AB0000DF098FD064B1B785BB2002B01D011B0E6
:101AC00000BD04480AF0F2FE684605F009F9F6E7A1
:101AD0003815002048050110F0B583B0050014004A
:101AE000012966D113785B069B0F012B58D0022B7E
:101AF00003D0002B01D000205CE06378022B24D0BF
:101B0000072B03D0012B19D0002053E022796379F1
:101B10001B021343042B03D0052B08D0002049E0FF
:101B20002433264A210028000CF050FF42E08D3378
:101B3000234A210028000CF049FF3BE02723214ADB
:101B4000210028000CF042FF34E0227963791B0267
:101B50001343072B30D11C4B1B785BB2022B0FD0E9
:101B60006B469F1D194E0222310038000AF068FDB5
:101B70003B883200083A210028000CF027FF19E0CA
:101B80006B469F1D124E0222310038000AF058FDAC
:101B90003B883200083A210028000CF017FF09E0CA
:101BA00051780C480AF0B2FE210028000CF0F2FE39
:101BB00000E0012003B0F0BD0020FBE7101500207D
:101BC0007C1400208805011038150020C003011086
:101BD0009804011060050110012815D0022907D0D2
:101BE00000290BD1022A29D0002A29D006207047CB
:101BF000022A1FD0002A1FD00800F8E7022A21D0AD
:101C0000002A21D00820F2E7022907D000290BD1B1
:101C1000022A1FD0002A1FD00720E8E7022A15D089
:101C2000002A15D00320E2E7022AE0D0002A15D0CE
:101C30000020DCE70120DAE70320D8E70720D6E719
:101C40000520D4E70020D2E70420D0E71000CEE73B
:101C50000420CCE70820CAE70620C8E70520C6E72D
:101C60000120704710B58422002102480AF0E2FCEE
:101C700010BDC046D026002010B50020FFF7F2FFAF
:101C800010BD0000F0B5C64600B580460D008B794A
:101C90005D2B24D10B79DF00FF1ABFB21937BFB219
:101CA000974221D80C780C19002605E0104A537091
:101CB0000136F6B22378E4182B79B34210D9637851
:101CC000052BF7D1210040460CF08AFA00280DD0F0
:101CD000A378DA09012AE9D0054A9370E8E70027DA
:101CE000380080BCB846F0BD0027F9E70027F7E7C9
:101CF000D026002030B583B00400144840788842D4
:101D000006D0124A92788A420CD0012003B030BD2E
:101D10000F4A002A18D09AB20E490020FFF7C6FDDC
:101D20000120F3E70C4D9BB200932B000022002111
:101D30000020FFF7E5FD2B00443B997840232A0063
:101D400020000CF0C1FAE1E70120DFE7D0260020F7
:101D5000AD180010D42600201427002010B50CF078
:101D6000A3F9002803D10023002B08D110BD0CF0EB
:101D7000A3F9002801D10123F6E70023F4E70B4B78
:101D8000997800200CF0DCFA0028EFD1074CA178FC
:101D90000CF072FA22004432A178402300200CF0AB
:101DA00093FAA17800200CF07BFADFE7D026002020
:101DB00070B505000C000CF07FF9002806D18121D8
:101DC00000200CF059FA002803D170BD0CF07CF90A
:101DD000F5E7231C402C00D940239CB2094E220079
:101DE000290030000AF02CFC351F697823003200EE
:101DF00000200CF069FA697800200CF051FAFFF726
:101E0000ADFFE2E7D426002010B5104B5C780CF053
:101E10004BF9002806D10023002B13D0002C09D148
:101E2000002010E00CF048F9002801D10123F3E76D
:101E30000023F1E7210000200CF082FA002803D1F2
:101E4000013000E0002010BD0020FCE7D02600207B
:101E500010B53C22002102480AF0ECFB10BDC04640
:101E6000281E002010B50020FFF7F2FF10BD000073
:101E7000F0B583B006000F001500FFF7A5FA0228A1
:101E80004CD13B79DC00E41AA4B21234A4B2AC42C7
:101E900048D80023002B09D00025002D44D03978E4
:101EA00079184B78212B11D0002438E01A01D21A6E
:101EB00092001F4882185278002A02D00133DBB208
:101EC000E8E71A01D11A89004518E6E7A9630B78FB
:101ED000C9183A796B1C0193AB1C009303233000A3
:101EE0000CF098F9002821D0BB79012B13D00123E5
:101EF0002B71BB782B70AA6BD179137A1B020B4321
:101F0000EB80A97800290AD02A003032062330005D
:101F10000CF0DAF903E0FB79EB70E8E7002420002D
:101F200003B0F0BD0024FAE70024F8E70024F6E748
:101F3000281E002070B582B005001D4C002000282E
:101F40000AD0002830D162788A4213D0A2788A421F
:101F50001AD0012002B070BD0401241AA400144A52
:101F60001419A2788A42ECD062788A42E9D0013012
:101F7000C0B2E4E70F4A002A18D0210008319AB213
:101F8000FFF794FC0120E5E7260030369BB2009372
:101F9000330000220021FFF7B3FCA17806233200B2
:101FA00028000CF091F9D5E70020D3E70120D1E714
:101FB000281E0020AD180010F0B5C64600B582B04E
:101FC0000600150012781F231340012B00D01FE1DB
:101FD00028790024002C0DD0FF24002C00D01CE117
:101FE0002700602318001040134239D101290BD07B
:101FF00001200EE123011B1B9B008E4FDB5D9842ED
:10200000EBD00134E4B2E5E7EA786B78062B06D032
:10201000062B00D005E1222A12D00020F9E0212A67
:10202000F6D123011F1BBF00824BDF19BA6B002AB8
:1020300000D1F4E01378290030000CF0C7FCE8E090
:102040002000FFF7C9FC02003B01DF1BBF00794BFA
:10205000DF19FB88290030000CF0B8FC0120D8E023
:10206000202800D0DFE06B780B2B00D9DDE09B004F
:10207000714AD3589F46012901D00120C9E0EA786E
:10208000A97823011B1B9B0008336A4FFF18A8790E
:10209000EB791B020343181C252B00D9252080B2A5
:1020A000002909D0012B16D97B1C9C4639700138B8
:1020B00080B20123984602E0BC4600239846009077
:1020C00063462000FFF7F0FB030043449BB2002B64
:1020D00005D100209DE0BC4600239846EFE73A007A
:1020E000290030000CF072FC012092E0012903D09D
:1020F000032915D001208CE0AA79EB791B02134348
:10210000062B01D9002084E02201121B92003032FC
:1021100048498A18290030000CF058FC012078E06A
:10212000EA78A97823011B1B9B0030334148C31870
:10213000AE79E87900023043051C062800D906254F
:10214000ADB2002904D0012802D91878884205D000
:1021500000952000FFF7D4FB01205AE00133013D38
:10216000ADB2F5E7012901D0012052E0E978230161
:102170001F1BBF002F4BDF197971304B002B04D090
:10218000200000E000BF002843D0290030000CF000
:1021900001FC01203DE0012901D0012039E02201AC
:1021A000171BBF00234AD219053201232900300032
:1021B0000CF00CFC01202CE0012901D0012028E0CA
:1021C0002201171BBF001B4AD21904320123290028
:1021D00030000CF0FBFB01201BE0012903D0032998
:1021E00007D0012015E0290030000CF0D3FB0120BE
:1021F0000FE0A97823011F1BBF000E4BDF193971B7
:102200000F4B002B13D0200000E000BF012000E0A6
:10221000002002B080BCB846F0BD0020F9E70020E5
:10222000F7E70020F5E70020F3E70020F1E70120C1
:10223000EFE7C046281E00200C0601100000000039
:102240000000000010B50301181A8000104B181888
:1022500044780BF029FF002806D10023002B13D06F
:10226000002C09D1002010E00BF026FF002801D13E
:102270000123F3E70023F1E7210000200CF060F8D0
:10228000002803D1013000E0002010BD0020FCE751
:10229000281E002010B50020FFF7D4FF10BD00005D
:1022A000F8B504000F0016001D0003011B1A9B0067
:1022B0001F4AD318597800200BF0DEFF002825D0E4
:1022C000002F24D02B1C242D00D924239DB2184A82
:1022D0002301191B890051180F721B1B9B00083327
:1022E000D01801302A0031000AF0AAF90135ADB248
:1022F0000F4B2001021B920008329A18001B80002D
:10230000181841782B0000200BF0DEFFF8BD2B1CC5
:10231000252D00D925239DB22001001B8000083007
:10232000034B18182A0031000AF08AF9E0E7C0468A
:10233000281E002010B513000A0001000020FFF73E
:10234000AFFF10BD107003120F20184050700B012A
:1023500018435070091191707047000070B5124D0C
:10236000802424012A0021002000FFF7EBFFEA1C53
:1023700021002000FFF7E6FFAA1D21002000FFF743
:10238000E1FF2A00093221002000FFF7DBFF2A00CD
:102390000C3221002000FFF7D5FF2A000F32210068
:1023A0002000FFF7CFFF70BDA030002010B5402205
:1023B000002102480AF03EF910BDC046E821002085
:1023C000014B18707047C046F9300020014B18735C
:1023D0007047C046E8210020014B58737047C04643
:1023E000E8210020074A0021535E10780649087052
:1023F000023399B21BB21380FF2B01DDFF3911802C
:102400007047C046D6300020E8210020024B1A78E1
:10241000024B5A707047C04658080110E82100204E
:10242000064B04229A732F32DA73303A1A74013A47
:102430005A74012119765A767047C046E821002067
:1024400010B5C4B2000A002307E019000E31044A97
:102450005454013150540233DBB20D2BF5D910BD69
:10246000E821002010B503007F2800D97F2080B22A
:10247000002B08D009F02FFF044909F0D8FE0449C9
:1024800009F0BAFE10BD0248FCE7C046BA669340A8
:102490000000204210B503007F2800D97F2080B2C1
:1024A000002B08D009F017FF044909F0C0FE0449C9
:1024B00009F0A2FE10BD0248FCE7C046C566134104
:1024C0000000A04210B503007F2800D97F2080B211
:1024D000002B05D009F0FFFE024909F092FE10BD65
:1024E0000020FCE70000FE42F8B5CE46474680B526
:1024F0000300C1788A0937D0012A17D0022A07D0F1
:102500000026371C0023994698460025002447E002
:102510004178090202780A439205940D002A23D1DA
:10252000A146A04625000026371C39E08078040229
:102530005E78320022431205140D002A67D01B7802
:102540009A074ED17F220240904649007E252940BD
:10255000C5090D43F201FF2414409B081C43730876
:1025600099460026371C1BE01C78E2073DD564081D
:102570005A78D1007820084081469978C90008250A
:102580000D4052091543ED00254E002700229046CC
:102590005A78D20601D5002291469B789B073CD4FD
:1025A0000021381C09F074FE002803D02000FFF73A
:1025B00071FF071C0021301C09F06AFE002803D0BF
:1025C0004046FFF74FFF061C4846FFF77BFF041C01
:1025D0002800FFF777FF031C321C211C381CFEF774
:1025E000B7F9C0BCB946B046F8BD620890465A7803
:1025F000D1007820084081469978C90008250D400F
:1026000052091543ED000026064F0024C0E7A146FD
:10261000A04625000026371CC2E70025C0E7C046BB
:10262000000020430000A0430A4B01221A70002240
:102630005A7003329A70084A117AD970D179197197
:1026400091795971517999711179D971D2781A7238
:102650007047C046E82100205018002010B5040043
:10266000FFF7A4FE8120FFF7ABFE012C09D0064B3B
:102670001C70064B19784023034A00200CF036FDED
:1026800010BDFFF7D1FFF4E7E8210020F93000206A
:1026900070B586B06C462A4B0433220070CB70C2F2
:1026A00070CB70C2022837D0032841D00023002508
:1026B00000E00133052B10D8224AD2187D32FF32B8
:1026C00014780522D21A885C8442F2D01D4AD218AE
:1026D0007D32FF3210700125EBE7002D19D18120EA
:1026E000FFF774FE184801238373164B1A7AC273DE
:1026F000DA7902749A7942745A7982741A79C274B6
:10270000DB78037515301822694609F099FF06B089
:1027100070BDFEF773FDE2E78120FFF757FE0A4820
:10272000022383730F301022084909F089FFEEE776
:102730008120FFF74BFE044B03229A73E7E7C04664
:102740005808011050180020E821002068220020BD
:1027500070B504000E001500FFF728FE2120FFF7DA
:102760002FFEFFF73FFEFFF751FE2000FFF734FE7C
:10277000482C67D8A4003E4B1B599F468020FFF78A
:1027800025FE00236AE0F07A431E9841C0B200F0B3
:102790005FFFF27A374B1A708020FFF717FEF0E7E1
:1027A00031000C31F07AFFF773FFEAE78020FFF782
:1027B0000DFEF27A304B1A70E3E78220FFF706FE37
:1027C000FFF72EFEDDE78020FFF700FED9E790201F
:1027D000FFF7FCFDF27BF17A307B00F037FAD0E7AF
:1027E000FEF758FECDE78020FFF7F0FDC9E7832014
:1027F000FFF7ECFD6420FFF723FEC2E78020FFF720
:10280000E5FDBEE78020FFF7E1FDF27A0F231340DC
:10281000033BDAB20C2A03D89300184AD3589F46D8
:102820000120FEF72FFEACE70320FAE70420F8E7CB
:102830000520F6E70620F4E70720F2E70820F0E796
:102840000220EEE70023AB4202D201339BB2FAE74B
:102850008020FFF7BBFD94E70133DBB21F2BFBD9D0
:102860004023074A212100200CF040FC70BDC046E7
:1028700000070110FA3000203C1500202408011048
:10288000E821002070B50C00150010280DD080281C
:102890000FD0012800D070BD881CFFF725FEA07A5C
:1028A0002A002100FFF754FFF5E7881CFFF71CFE04
:1028B000F1E74878FFF7D2FEEDE70000094B1B78FF
:1028C0000A2B07D00B2B09D0064B0A221A70054B96
:1028D00018787047034B0B221A70F8E7014B0C2253
:1028E0001A70F4E73D15002070B504005D4B1B78AD
:1028F000002B04D15C4B1B78302B0BD070BD5B4B95
:102900001A885B4B18785B49FFF7BCFF554B0022D8
:102910001A70F3E7FFF74AFD3020FFF751FDFFF78C
:1029200061FDFFF773FD544B1B78012B2DD0022B5B
:1029300000D18AE02378514DAB706378EB70A378B7
:102940002B71E3786B7123790F210B40AB716079A8
:10295000A3791B0203431B11EB71E3792B72237ADA
:1029600019406972617AA37A1B020B431B11AB7287
:10297000FFF7A4FFE872424B197840232A00002099
:102980000CF0B4FB02F0A2FAB8E700F007FD837880
:102990003A4D2B73C3786B730378AB734378EB7347
:1029A00003792B7443796B74037AAB74437AEB74B9
:1029B00083792B75C3796B75837AAB75C37AEB75A5
:1029C00000F0ECFC83782B76C3786B760378AB76DB
:1029D0004378EB7603792B7743796B77037AAB7780
:1029E000437AEB7782792023EA54C2790133EA549F
:1029F000827A0133EA54C27A0133EA5400F0CEFC01
:102A000082782423EA54C2780133EA5402780133ED
:102A1000EA5442780133EA5402790133EA544279A4
:102A20000133EA54027A0133EA54427A0133EA5418
:102A300082790133EA54C2790133EA54827A01334C
:102A4000EA54C27A0133EA5474E70E4D280000F0CC
:102A500025F90A4B0C3307CD07C307CD07C307CDB4
:102A600007C367E7FB3000203C1500203A15002023
:102A7000FC30002028220020FA300020E82100202D
:102A8000F9300020CC2D002010B5054B01241C701E
:102A9000044B1870044B1A80044809F0D1FD10BD96
:102AA000FB300020FC3000203A15002028220020B6
:102AB00010B5024B181809F0C3FD10BDE821002025
:102AC000502800D1B0E003D960282FD0FF2010E0BB
:102AD000402800D9AAE0202805D34B2924D88B0010
:102AE000564AD3589F46002803D0102800D09FE0B4
:102AF000002070479520FCE70020FAE72A39504B68
:102B000059187D31FF310878F3E704394C4B5918D7
:102B10007D31FF310878ECE70020EAE70020E8E7A4
:102B20006820E6E70020E4E70020E2E7A92979D859
:102B30008B00444AD3589F46FF20DAE70220D8E7AB
:102B40000120D6E72320D4E70020D2E7B920D0E740
:102B50001A20CEE70120CCE70020CAE74020C8E7D2
:102B60000020C6E74020C4E70020C2E74020C0E7BD
:102B70000120BEE70020BCE70120BAE70020B8E74B
:102B80000120B6E70020B4E73B20B2E73420B0E7ED
:102B90003B20AEE73420ACE73B20AAE73420A8E78F
:102BA0003D39294B585CA4E73D39274B585CA0E7D9
:102BB0001A209EE71A209CE71A209AE75E2098E7E1
:102BC000012096E7502094E7FD2092E7002090E74F
:102BD00000208EE7C6208CE70F208AE70F2088E7C9
:102BE000302086E7612084E7AE2082E7902080E7EE
:102BF000D9207EE7D4207CE714207AE7542078E7B8
:102C0000412076E7152074E7542072E7C72070E76B
:102C100079206EE79C206CE733206AE7362068E76E
:102C2000632066E7002064E7002062E7FF2060E79A
:102C3000FF205EE722205CE703205AE774080110BA
:102C400050180020A4090110A0300020F0B58BB06E
:102C500006000F00150008A90F70487000248C7042
:102C6000CC700A7105220E20FFF722FF00941A2271
:102C7000002101A809F0DEFC07E03919C9B23000D3
:102C8000FFF71EFF6B4618550134A542F5DC2A00FC
:102C900069461320FFF70CFF0BB0F0BDF0B5DE4620
:102CA00057464E464546E0B585B004008379032279
:102CB00093430222134383710125002601E001356D
:102CC000EDB2032D0CD8724BAA00D058B200D158E7
:102CD0004900490809F0FAFA0028F0D02E00EEE782
:102CE000032333409A00A3790C218B431343A37130
:102CF000002509E06749404609F099FAAF0009F05C
:102D000011FB01ABD8510135022D15DC72190132CE
:102D1000032313405E4F9B00D8599D21C90509F03C
:102D200086FA8046B300D859002109F0B9FA002884
:102D3000E0D1FE218905DEE7019B9B12DB02D90A67
:102D40000F2211400901A07902400A43A271D90B58
:102D5000E171D90D2172DB0F012601210B40607A50
:102D6000B04303436372029B9D127F20824605405D
:102D70006F00657A0D403D4365725B149B049B0CAC
:102D8000A3721B0A3F273B40E57A403885432B431B
:102D9000E372039B9A129446032503226046104077
:102DA00080018446E07A074060460743E7721B13C0
:102DB0005B035F0BA774580DE0745B0F0720804620
:102DC00003409B46207D84460720814660464B4653
:102DD00098430300584618432075C3B24046034049
:102DE000237500236375A375E37D18308343E37572
:102DF000E77D1F233B40E3750023A3772700E37F94
:102E0000AB43E377DBB21340E3771E37BB78B343C2
:102E1000BB701F36A35D0B40A35521239C46E35C8A
:102E20005F36B34360462354194E33691940C901D4
:102E30008946205C514601400800494601436046EE
:102E400021545B089B059B0D3B711B0A134079794C
:102E5000A9430B437B712323E15C0A400C210A4305
:102E6000E254B38AA3701B0AE370F38A23701B0A2F
:102E70006370338B23711B0A6371336908333361C9
:102E800005B0F0BCBB46B246A946A046F0BDC04660
:102E900040150020000080BFF0B5DE4657464E4684
:102EA0004546E0B585B004000D00C3689A46CE687B
:102EB000311C181C09F0BBF9071C236898462B68C5
:102EC0009B46191C404609F0B2F9011C381C09F058
:102ED0008EF9071C63686A689146111C0093181CE0
:102EE00009F0A5F9011C381C09F081F90190A768C7
:102EF000AD68291C381C09F09AF9011C019809F0E9
:102F000076F901905946504609F091F902904146F0
:102F1000301C09F08CF9011C029809F06DF902903F
:102F2000291C009809F083F9011C029809F064F942
:102F30000290391C484609F07AF9011C029809F000
:102F400056F902904946504609F071F90390291C40
:102F5000404609F06CF9011C039809F048F9039008
:102F60000099301C09F063F9011C039809F044F939
:102F70000390391C584609F05AF9011C039809F0CE
:102F80003BF90390291C504609F051F9051C4946AC
:102F9000404609F04CF9011C281C09F02DF9051CCC
:102FA0000099584609F043F9011C281C09F01FF943
:102FB000051C391C301C09F03AF9011C281C09F0C9
:102FC0001BF9019BE360029B2360039B6360A0608D
:102FD00005B0F0BCBB46B246A946A046F0BD70B5F0
:102FE00004000168081C09F022F9051C6168081C2E
:102FF00009F01DF9011C281C09F0FEF8051CA16848
:10300000081C09F014F9011C281C09F0F5F8051C2E
:10301000E168081C09F00BF9011C281C09F0ECF808
:1030200009F0C4F9011CFE20800509F0EAF8051C2E
:10303000011C206809F0FBF82060291C606809F079
:10304000F6F86060291CA06809F0F1F8A060291C5E
:10305000E06809F0ECF8E06070BD0000F0B5DE4615
:1030600057464E464546E0B58DB08046944A934655
:1030700000911268881A09F02EF9041C4246127A4F
:103080004146487A000210430004001409F028F970
:103090008C4909F0CCF88C4909F0B3F809F07CF9B7
:1030A0008A4A8B4B08F027F800228A4B08F005F873
:1030B0000022894B08F001F806000F00201C09F0DF
:1030C0006BF904000D0002000B003000390008F01D
:1030D00012F808F0D5F88246424692794146C879FE
:1030E000000210430004001409F0FAF8754909F0D1
:1030F0009EF8754909F085F809F04EF9734A744B4A
:1031000007F0F9FF0022734B07F0D7FF0022724B44
:1031100007F0D3FF02000B002000290007F0EBFFAF
:1031200008F0AEF881464246927A4146C87A0002DB
:1031300010430004001409F0D3F8624909F077F84D
:10314000614909F05EF809F027F9604A604B07F021
:10315000D2FF00225F4B07F0B0FF00225E4B07F06A
:10316000ACFF02000B002000290007F0C4FF08F0AC
:1031700087F8051C5146504609F059F8041C494689
:10318000484609F054F8011C201C09F035F8041CCD
:10319000291C0195281C09F04AF8011C201C09F083
:1031A0002BF809F0F9F804000D0002000B0007F0FD
:1031B000A2FF06000F000022484B0296039707F07B
:1031C0007CFF06000F000022454B2000290007F07D
:1031D00074FF02000B003000390007F05CFF002292
:1031E000404B07F061FF06000F0000223E4B0298A3
:1031F000039907F062FF029003910022FF239B05D1
:103200002000290007F077FF02000B0002980399C5
:1032100007F041FF0022354B07F046FF04000D0088
:103220001C22002105A809F005FA504609F0B4F85F
:1032300032003B0007F05FFF08F022F80590484697
:1032400009F0AAF832003B0007F055FF08F018F823
:103250000690019809F0A0F832003B0007F04BFF00
:1032600008F00EF807902000290008F009F80890EF
:103270001F4C05A92000FFF70FFE2000FFF7AFFE4F
:103280004246117853781B020B431B041B14A38284
:103290009178D3781B020B431B041B14E382117932
:1032A00053791B020B431B041B1423835A46009BB8
:1032B00013600DB0F0BCBB46B246A946A046F0BDB7
:1032C000442E00200000FA4400FEFF46182D44540E
:1032D000FB2109400080664080842E410000AE4002
:1032E000000048400000E03F000078400000F03F50
:1032F00040150020F0B5C64600B5040088462349B5
:1033000023480CF085FF0028F9D0224E3368581C62
:10331000032107F051FC2578627812021E4F480005
:10332000401883005B182A43FA54120AFB185A709B
:10333000A078E278120202439A70120ADA702079B9
:103340006279120202431A71120A5A71A079E27963
:10335000120202439A71120ADA71207A627A120218
:1033600002431A72120A5A72A07AE27A12020243D5
:103370009A72120ADA72316041462000FFF76EFE3F
:1033800003480CF005FF80BCB846F0BDE01F0020EC
:1033900000170020DC1F0020B41F002010B50949D1
:1033A00009480CF035FF0028F9D0084B1C68064886
:1033B0000CF0EEFE6000001980000019044B181894
:1033C00010BDC046E41F002000170020DC1F0020B5
:1033D000B41F00204118CB0F5B185B1080225202F3
:1033E000914204DA044A914203DB18B27047034861
:1033F000FCE70348FAE7C046FFFFFEFFFF7F00003F
:103400000080FFFF70B52848FEF73FF8274D0622E1
:103410000021280009F00EF9A81D0622002109F05C
:1034200009F9234B01221A70224BFA2292011A60E9
:10343000214B00221A70214E214C31002000FDF753
:1034400085FA0023E25E9C3D9C23EA540223E25E5F
:103450009D23EA540423E25E9E23EA540623E25E9F
:103460009F23EA540823E25EA023EA540A23E25E83
:10347000A123EA540023F25EA223EA540223F25E5F
:10348000A323EA540423F25EA423EA540623F25E43
:10349000A523EA540823F25EA623EA540A23F25E27
:1034A000A723EA5470BDC0460000FFFFEC180020BF
:1034B000E9300020B01F0020EA300020A01F0020CB
:1034C000801F002010B5084AE2235B00D05C012178
:1034D0004942FDF7DCFFFDF78BFEFDF78FFE034B46
:1034E00000221A7010BDC04650180020E93000209C
:1034F000F8B552495248FDF729FA524B1B78002B78
:1035000000D160E0504C9C254D4E0023F15E605789
:10351000FFF760FF605501350223F15E6057FFF74A
:1035200059FF605501350423F15E6057FFF752FFE4
:10353000605501350623F15E6057FFF74BFF60557C
:1035400001350823F15E6057FFF744FF60550135F0
:103550000A23F15E6057FFF73DFF6055A227374D04
:103560000023E95EE057FFF735FFE05501370223FE
:10357000E95EE057FFF72EFFE05501370423E95ECF
:10358000E057FFF727FFE05501370623E95EE057D4
:10359000FFF720FFE05501370823E95EE057FFF70A
:1035A00019FFE05501370A23E95EE057FFF712FFE4
:1035B000E055002333732B73244A1368013B1360D7
:1035C000002B37D0F8BD1E4A0023D05E1E4B9C2135
:1035D00058540221505E9D2158540421505E9E2172
:1035E00058540621505E9F2158540821505EA02156
:1035F00058540A21515EA1229954104A0021505E6C
:10360000A22158540221505EA32158540421505E37
:10361000A42158540621505EA52158540821505E1B
:10362000A62158540A21515EA7229954054BA63A67
:103630001A70C7E7FFF746FFC4E7C046A01F002087
:10364000801F0020EA30002050180020B01F00200A
:10365000014B18707047C046EB300020F0B5C646ED
:1036600000B504004C4B1B78002B06D14B4B1B784C
:10367000002B05D180BCB846F0BDFFF739FFF9E754
:10368000FA21474A8900FDF752FF0028F2D0454D44
:1036900029004548FDF75AF92B7B002B03D0424BFC
:1036A0001B7B002B0AD1404B1B7B002B00D06EE014
:1036B00000233D4A13733B4A1373DBE73A4B9846AA
:1036C00018883A4D9C23EB569BB2C01A354F398867
:1036D000A223EB569BB2C91A09B200B2FFF77AFED9
:1036E000334E3080434658889D23EB569BB2C01A18
:1036F0007988A323EB569BB2C91A09B200B2FFF72F
:1037000069FE7080434698889E23EB569BB2C01A90
:10371000B988A423EB569BB2C91A09B200B2FFF7CD
:1037200059FEB0804346D8889F23EB569BB2C01AFF
:10373000F988A523EB569BB2C91A09B200B2FFF76C
:1037400049FEF08043461889A023EB569BB2C01A6D
:103750003989A623EB569BB2C91A09B200B2FFF70A
:1037600039FE308143465889A123EB569BB2C01ADB
:103770007989A723EB569BB2C91A09B200B2FFF7A9
:1037800029FE708121003000FFF7B4FD90E7210091
:103790000548FFF7AFFD8BE7E9300020EB30002054
:1037A000542D0020A01F0020801F00205018002052
:1037B000901F002004281ED00CDC012816D0002801
:1037C0000FDD0238C0B201280BD80D4B0B60083357
:1037D00013600AE0052804D10A4B0B60083313601C
:1037E00003E0094B0B60083313607047074B0B6015
:1037F00008331360F9E7064B0B6008331360F4E7F6
:1038000098190020B8190020781900208819002084
:10381000A819002030B50F220D780F231D40047821
:1038200094432C4304704C781C40250104781C40C0
:103830002C4304708D781D40447894432C4344708D
:10384000CC781C40250144781C402C4344700D79F1
:103850001D40847894432C4384704C791C4025018E
:1038600084781C402C4384708D791D40C478944327
:103870002C43C470CC791C402501C4781C402C43D7
:10388000C4700D7A1D40047994432C4304714C7A22
:103890001C40250104791C402C4304718D7A1D4085
:1038A000447994432C434471CC7A1C4025014479DB
:1038B0001C402C4344710D7B1D40847994432C4360
:1038C00084714C7B1C40250184791C402C438471FD
:1038D0008D7B1D40C479944322002A43C271CA7B68
:1038E0001A401201C1790B401343C37130BD0B78EC
:1038F0001B071B0F03700B781B0943704B781B07CA
:103900001B0F83704B781B09C3708B781B071B0F31
:1039100003718B781B094371CB781B071B0F8371D5
:10392000CB781B09C3710B791B071B0F03720B7933
:103930001B0943724B791B071B0F83724B791B09C1
:10394000C3728B791B071B0F03738B791B0943739E
:10395000CB791B071B0F8373CB791B09C37370478C
:1039600070B50400144D154A2900FFF723FF2B689A
:10397000134A1168526819605A60042C12D0052C41
:1039800015D0032C09D00D4B1B6800221A800A4B5E
:1039900019680C48FFF7ABFF70BD084B1B680A4A5B
:1039A0001A80F4E7054B1B68084A1A80EFE7034BBF
:1039B0001B68074A1A80EAE774210020A022002031
:1039C000900C01105821002000E1FFFF00C0FFFF14
:1039D00000CAFFFF10B50E4B19600E4B1A600E4B5C
:1039E00018700E4C0E4A2100FFF7E4FE21680D4CC2
:1039F0002000FFF77CFFE37A0B3B5A1E93410A4AF3
:103A00001370637A093B5A1E9341084A137010BD24
:103A1000D41A0020D81A0020F13000207421002090
:103A2000A022002058210020F0300020EC3000209F
:103A3000024ABC235B00D0547047C0465018002097
:103A400010B5044B00221A70034B19680348FFF7A6
:103A50004EFF10BDDE3000207421002058210020D0
:103A600070B590B00500384C384E22003100FFF799
:103A7000A1FE31683648FFF73AFFFFF7E1FF002368
:103A800000933C22002101A808F0D4FDA6236A4639
:103A90001370557033681A781207120F69468A70CE
:103AA0001A781209CA705A781207120F0A715A78D6
:103AB00012094A719A781207120F8A719A781209BC
:103AC000CA71DA781207120F0A72DA7812094A728A
:103AD0001A791207120F8A721A791209CA725A7960
:103AE0001207120F0A735A7912094A739A79120748
:103AF000120F8A739A791209CA73DA791207120FB0
:103B00000A74DB791B094B74226813881B0A8B74B7
:103B10001388CB740F4BBC2252009A5C0A75BD22ED
:103B200052009B5C4B75FA20000103F001F800285D
:103B300001D110B070BD00200BF084FD4022694619
:103B400000200BF061FDF4E7942200209022002079
:103B5000802200205018002070B50A0000210F2993
:103B600037D803000B41DB0714D40131C9B2F6E7A3
:103B70000133DBB20F2B0FD82A4AD05C2A4A1278C5
:103B80009042F5D1294A14680120984022880243C6
:103B90002280EDE70023EDE7224C234803786354AD
:103BA000224B1D6801228A402B8893432B80027888
:103BB0001F4808F0ABFE1F4B00221A701E4B1868FE
:103BC0002100FFF727FE1D4B00201856FFF748FF86
:103BD00070BD002AFCD0002401E00134E4B20F2CB7
:103BE00014D8104B1A5D104B1B789A42F5D1210066
:103BF000134808F08BFE0D4B19680122A2400B8878
:103C000013430B800B4B00221A70E6E70A4B18682F
:103C10000449FFF7FFFD094B00201856FFF720FF6E
:103C2000D6E7C04680220020DD300020942200200C
:103C30004C0C0110DE30002090220020FD300020CE
:103C4000680C011070B504000D00084E084A3100E0
:103C5000FFF7B0FD31680748FFF749FE064B1C70BF
:103C6000064B1D70064B01221A7070BD9022002079
:103C70009422002080220020FD300020DD30002032
:103C8000DE30002070B5D04B00221A809A70CF4BE6
:103C90001B78002B13D0CE4B1A6893789B07D90F53
:103CA000002B03DA9378022083439370C84B1B6880
:103CB0001A78587800021043FFF74EFF70BD01F0EC
:103CC00011FC002826D0C24B19688A780124A2432F
:103CD0008A7019688A78022082438A7019684A7843
:103CE0001025AA434A7019684A781035AA434A70C9
:103CF00019680A78A2430A7019680A7882430A7020
:103D000019680A78023082430A701A681378082109
:103D10008B431370AC4B00229B5EAE4A1268517805
:103D2000C90600D527E1AA4909684978C906C90F1B
:103D3000A948007B814009B20B43A3490B8051780D
:103D4000890600D519E1A249096849788906C90F91
:103D5000A148407B814009B20B439B4C23809C4986
:103D6000096888788007C00F4000A5780226B5430F
:103D70002843A0708878C007C50FA078013EB043E3
:103D80002843A0701078C00700D5F8E00878C00775
:103D9000C00F914C2478A04000B203438A480380AE
:103DA0001078800700D5ECE008788007C00F8A4CB7
:103DB0006478A04000B20343834803801078400732
:103DC00000D5E0E008784007C00F834CA478A040FD
:103DD00000B203437C4803801078000700D5D4E08C
:103DE00008780007C00F7C4CE478A04000B2034381
:103DF000754803801078C00600D5C8E00878C00672
:103E0000C00F754C2479A04000B203436E48038074
:103E10001078800600D5BCE008788006C00F6E4C94
:103E20006479A04000B203436748038010784006DD
:103E300000D5B0E008784006C00F674CA479A040D8
:103E400000B20343604803801078C00900D0A4E0AA
:103E50000878C009604CE479A04000B203435A4896
:103E600003805078C00700D599E04878C007C00F9C
:103E7000594C247AA04000B2034353480380507841
:103E8000400700D58DE048784007C00F524CA47A17
:103E9000A04000B203434C4803805078800700D50F
:103EA00081E048788007C00F4B4C647AA04000B294
:103EB000034398B2444C2080800576D54748424D54
:103EC000EC1CE870050A65700025A570000EE07016
:103ED000507880076BD448788007C00F3E4C647AD6
:103EE000A04000B20343384803805078000760D4F4
:103EF00048780007C00F384CE47AA04000B2034372
:103F000098B2314C2080000555D534482E4DEC1D1B
:103F1000E871050A65700025A570000EE070507804
:103F200000074AD448780007C00F2B4CE47AA04021
:103F300000B2034324480380507840063FD44878B9
:103F40004006C00F244CA47BA04000B203431E488F
:103F500003805278D20934D14A78D2091E49C97BEC
:103F60008A4012B2184913430B801D4B18680C226B
:103F700008F066FBA2E60021DEE60021ECE6002068
:103F80000BE7002017E7002023E700202FE70020A1
:103F90003BE7002047E7002053E700205EE70020D2
:103FA0006AE7002076E7002082E7002087E700200C
:103FB00098E70020A3E70020A8E70020B9E7002049
:103FC000C4E70022CEE7C04668210020DE30002092
:103FD000D41A0020A022002058210020FF0F00004A
:103FE000D81A002010B5054CA446604462444243F0
:103FF0000819634458431018C00F10BD00F8FFFFA4
:1040000070B50C0008F06CF98A21C90508F0EFF8CA
:10401000051C200008F064F98A21C90508F0E7F8BA
:10402000041C291C281C08F002F9051C211C201C5A
:1040300008F0FDF8011C281C08F0DEF808F0B6F9BD
:1040400070BD10B5031C081C0124191C08F02EF9C2
:10405000002800D10024E0B210BD10B50400130008
:10406000406800280CDB0A00A168FFF7BBFF0028AE
:1040700000D110BD01235B426360A3600120F8E71B
:104080000020F6E7F0B5D6464F464646C0B50600D6
:104090000D0091469846089CFFF7B2FF071C3C496B
:1040A00008F00CF9002822D06660A5601423A381D3
:1040B0002A0031002000FFF7D0FF002820D00C227A
:1040C000A35E002B1CDD0023A373012222766376FE
:1040D0002374E37380252D012E0027604B461E605C
:1040E00043461D60E0BCBA46B146A846F0BD0C226E
:1040F000A35E002B02D09BB2013B1BB2A381D7E78A
:10410000237E002B2CD0237C0133DBB29A46237410
:10411000391C2068FFF795FF00280BD00123A373FB
:10412000E37B0133E37353461D2B06D9002323762B
:104130006376D2E70023E373F5E7E37B022B1FD915
:104140000023A37323760133637653460433A374A9
:104150006660A5601423A38180252D012E00BCE795
:10416000637E002BB9D0A37C013BDBB2A374002B90
:104170000AD1A3732376637680252D012E00ACE748
:1041800080252D012E00A8E780252D012E00A4E713
:104190000080224430B583B00D001400131D094A7D
:1041A0000092220049682868FFF76CFF23000C3357
:1041B00022000832E968A868034C0094FFF762FF08
:1041C00003B030BD9C2D0020482E002010B50011FA
:1041D000084A1378991C084C60540133DBB2137001
:1041E0003D2B01D8002010BD130000221A700120C1
:1041F000F9E7C046E83000209821002010B50C00F7
:10420000FA213D4A8900FDF792F900281DD03B4B69
:104210001B78002B12D13A4B1B78002B60D12368FE
:104220000B3BFF3B374A93422BD9374B1C60344B37
:1042300001221A70354B00221A7006E0324B1B68BF
:104240001868FFF7C3FF002800D110BD304BA5222E
:104250001A702E4A12785A70FA20000102F068FC97
:10426000002805D10023254A1370254A1370ECE776
:104270004022274900200BF0C7F900200BF0E2F99B
:10428000F0E763680B3BFF3B1E4A934208D90434B6
:104290001D4B1C6001231A4A13701C4A1370D4E78B
:1042A000A3680B3BFF3B174A934209D90834164BCE
:1042B0001C60134B01221A70144B01321A70C4E7B0
:1042C000E3680B3BFF3B0F4A9342BED90C340E4BC5
:1042D0001C600B4B01221A700C4B02321A70B4E7AF
:1042E000094B1B681B680B3BFF3B064A9342ACD84B
:1042F000024B01221A70A8E7842D0020E030002034
:10430000E6300020EB0D0000942F0020F730002055
:104310009821002070B5041C0D000B78002B0AD0EA
:10432000CE68011C301C07F0C9FF002804D0686863
:10433000211C07F07CFF70BD311C201C07F057FFCB
:10434000A96807F074FF024907F056FFF3E7C0467B
:104350000000B44170B507F04AFF4000400808F083
:104360001BF804000D0002000B000020054906F0B8
:1043700092FE02000B00200029000BF069FF06F0FE
:104380007FFF70BD0080764070B5061C0C1C151CAC
:10439000111C201C07F08AFF00280FD0311C201CA4
:1043A00007F084FF002807D0311C281C07F086FF87
:1043B000002802D0012000E0002070BD311C201C2C
:1043C00007F074FF002807D1311C281C07F076FF86
:1043D000002803D00120F0E70120EEE70020ECE701
:1043E000F8B5071C0E000024002503E0002206E0BB
:1043F0000134E4B2072C0DD8062CF7D8621CA300B8
:104400009200B258F158381CFFF7BEFF0028EFD0D9
:104410002500EDE72800F8BD10B507F0BDFF00222C
:10442000104B07F06BF806F02BFF041C002107F07F
:1044300037FF00280FD1201C07F0AEFF00220A4BE7
:1044400006F03BFE06F0E0FEC217520F801807236D
:104450001840801A10BD0549201C07F0CDFE041C31
:10446000E9E7C04600807640008046400000B44343
:1044700010B507F0C1FE041C0B4907F027FF002808
:1044800006D00949201C07F0B2FE041C201C10BDF8
:104490000021201C07F004FF0028F7D00249201C4F
:1044A00007F0AAFE041CF1E70000B44370B5CD1A72
:1044B000801A07F015FF041C280007F011FF211CCB
:1044C00007F086FF114907F0B2FE07F065FF104ABA
:1044D000104B06F0F2FD06F0D3FE041C002107F09D
:1044E000DFFE00280BD10C49201C07F0E7FE002856
:1044F0000AD00949201C07F07AFE041C04E0064992
:10450000201C07F079FE041C201C70BD0000344301
:10451000182D4454FB2109400000B443F8B50C00A9
:1045200017001E0007F0DCFE051C380007F0D8FE5F
:10453000011C281C07F05BFE051C200007F0D0FEC4
:10454000041C300007F0CCFE011C201C07F04FFEBD
:10455000041C291C281C07F06AFE051C211C201CB9
:1045600007F065FE011C281C07F046FE07F01EFF41
:10457000F8BD0000F8B50F00160007F00DFF0B4A5C
:104580000B4B06F0B8FD06F07BFE07F005FF0400BC
:104590000D0006F08BFE06F073FE38602000290047
:1045A00006F09AFE06F06CFE3060F8BD399D52A20E
:1045B00046DF913FF0B5DE4657464E464546E0B5EC
:1045C00083B080468B4615001F001100FFF708FFDF
:1045D000040006285CDC461CA3009946EB589A466A
:1045E000B600A959181CFFF7B5FE051C51464046F8
:1045F000FFF7B0FE8046291C07F003FE051C4B4662
:10460000FB589A46011CFE20800507F0F0FD011CB6
:10461000504607F00CFE8246B859291C07F007FEE9
:10462000011C504607F0E8FD051C0C9B4A469858B3
:10463000414607F0FCFD031C22010D9989180D98D5
:10464000825C002A03D0181CFFF764FE031CA40040
:10465000304AA058191CFFF70BFF00260196009660
:104660006A4601A9FFF786FF5946281C07F0DFFDBF
:10467000041C311C07F014FE00280BD18A21C90547
:10468000201C07F023FE002805D08A24E40502E060
:104690000026A1E700240199201C07F0C8FD051C95
:1046A0000190211C009807F0C2FD00908A21C905E5
:1046B000281C07F0A1FD07F013FF07F033FE0028C8
:1046C00023DB80235B01984200DB134807F008FEE0
:1046D0000E9B18608A21C905009807F08DFD07F030
:1046E000FFFE07F01FFE002811DB80235B019842CC
:1046F00000DB094807F0F4FD0F9B186003B0F0BC25
:10470000BB46B246A946A046F0BD0020E0E7002027
:10471000F2E7C046980C0110FF0F0000F8B5070043
:104720000E00002409E0A500795975198A20C005FA
:1047300007F067FD28600134E4B2072CF3D9F8BD17
:10474000F8B505000E0000240DE00023A7009B0033
:10475000E958E859FFF7FEFD011C064807F051FD36
:10476000F0510134E4B2072C03D8062CEDD8631CB9
:10477000ECE7F8BD00003442F0B5C64600B580460F
:104780000F00002419E02601BE19012333702868A8
:10479000164907F031FD051CF060011C134807F0B5
:1047A00030FD7060291C124807F021FD011C0F48E4
:1047B00007F027FDB0600134E4B2072C12D8A50041
:1047C00045440021286807F063FD0028DBD0230161
:1047D000FB1800221A70054ADA60FE2292055A6020
:1047E0009A60E8E780BCB846F0BDC0460000B4411E
:1047F000000034420A4AD3685B005B1009490B6031
:1048000053695B005B1008490B6013695B005B1028
:1048100006490B6093695B005B10054A13607047A3
:1048200050180020D8210020E0210020DC210020A9
:10483000E421002010B5054B1B68054A12680549A4
:10484000096805480068FCF78BFD10BDE4210020D5
:10485000E0210020DC210020D821002010B5104CE0
:1048600010492000FFF76CFF200020300E49FFF7B1
:1048700067FF200040300D49FFF750FF20006030F7
:104880000B49FFF74BFF20006930FF300949FFF764
:1048900073FF20008930FF300749FFF76DFF10BD1F
:1048A0006C1800205C1500209C1500207C15002051
:1048B000BC15002028200020D820002010B50E4B69
:1048C00000221A800D4C20320021200007F0B2FE99
:1048D000200020302022002107F0ACFE20004038CC
:1048E0002022002107F0A6FE2000203820220021EF
:1048F00007F0A0FE10BDC046D4300020AC18002048
:10490000F0B5DE4657464E464546E0B583B0040056
:104910005F4B9B465F4B9A465B461B68524612684C
:1049200041680068FFF7C2FD071C5B4B99465B4D71
:104930001B682A68E168A068FFF7B8FD804601900F
:10494000574E311C0097381CFFF792FD071C311C95
:104950004046FFF78DFD061C381CFFF75DFD070084
:10496000301CFFF759FD06005B461B685246126873
:1049700061682068FFF7D2FD82464B461B682A68B3
:10498000E168A068FFF7CAFD8046009807F004FDC3
:104990000022444B06F0B2FD06F072FC041CFE211E
:1049A000890507F07DFC002805D13F49201C07F050
:1049B0008DFC002822D03A00163292003B4B9B1807
:1049C0005868514607F06CFC002817D0384950460B
:1049D00007F07CFC002811D0344A3B0016339B00C2
:1049E000D31851465960BB1D9B00D218009B5360E1
:1049F0000122BA402F490B8813430B80019807F01E
:104A0000CBFC0022274B06F079FD06F039FC041C94
:104A1000FE21890507F044FC002805D12249201C0D
:104A200007F054FC002824D032001E3292001F4BA5
:104A30009B185868414607F033FC002819D01C49E0
:104A4000404607F043FC002813D0184A33001E33B9
:104A50009B00D3184146596033000E339B00D21897
:104A6000019B536008360122B24012490B88134360
:104A70000B80104B1888104B9C46604443425841B1
:104A8000C0B203B0F0BCBB46B246A946A046F0BDDA
:104A9000DC210020D8210020E4210020E02100209A
:104AA0000000B44100804640000030425018002011
:104AB0000000FA42D43000200100FFFF064B0268DC
:104AC0001A60064B42681A60054B82681A60C26819
:104AD000044B1A607047C046D8210020DC2100201A
:104AE000E0210020E4210020F0B5DE4600B584B0CE
:104AF000040000910192224B9B46224F1B683A68AA
:104B000041680068FFF7D2FC02901F4E1F4D3368CA
:104B10002A68E168A068FFF7C9FC03905B461B6840
:104B20003A6861682068FFF7F9FC071C33682A6857
:104B3000E168A068FFF7F2FC041C1549381C07F077
:104B4000C5FB002809D11249201C07F0BFFB002833
:104B50000CD104B080BCBB46F0BD0298FFF75CFCF2
:104B60000023009A1370019B1870F2E70398FFF777
:104B700053FC0123009A1370019B1870E9E7C046AB
:104B8000DC210020D8210020E4210020E0210020A9
:104B90000000FA42F0B5DE4657464E464546E0B5BF
:104BA00085B0040000910192294B9A46294D1B685B
:104BB0002A6841680068FFF779FC8146264E274F36
:104BC00033683A68E168A068FFF770FC8046244BC0
:104BD0009B46191C4846FFF74BFC0290594640463D
:104BE000FFF746FC039053461B682A6861682068FB
:104BF000FFF794FC051C33683A68E168A068FFF78A
:104C00008DFC041C1749281C07F060FB00280CD100
:104C10001449201C07F05AFB00280FD105B0F0BC46
:104C2000BB46B246A946A046F0BD0298FFF7F4FB8A
:104C30000023009A1370019B1870EFE70398FFF7A9
:104C4000EBFB0123009A1370019B1870E6E7C04646
:104C5000DC210020D8210020E4210020E0210020D8
:104C60000000B4410000FA42F0B5DE4657464E4619
:104C70004546E0B585B00400334B9A46334D1B687A
:104C80002A6841680068FFF711FC81460190304EA8
:104C9000304F33683A68E168A068FFF707FC804648
:104CA0002D4B9B46191C4846FFF7E2FB02905946E4
:104CB0004046FFF7DDFB039053461B682A68616896
:104CC0002068FFF72BFC814633683A68E168A068EA
:104CD000FFF724FC041C2149484607F0F7FA002896
:104CE0000DD11E49201C07F0F1FA002819D100202F
:104CF00005B0F0BCBB46B246A946A046F0BD02983E
:104D0000FFF78AFB164A831D9B00D318019959604F
:104D10001630800010184B464360FFF79FFD0120BE
:104D2000E6E70398FFF778FB0D4A03000E339B007C
:104D3000D318414659601E30800010184460FFF7B8
:104D40008DFD0120D4E7C046DC210020D8210020C1
:104D5000E4210020E02100200000B4410000FA42DC
:104D600050180020F0B5DE4657464E464546E0B5A1
:104D700089B004000D00484B9B46484B99465B4662
:104D80001B684A46126841680068FFF78FFB80463F
:104D9000434E444F33683A68E168A068FFF786FBEA
:104DA00082465B461B684A46126861682068FFF7C6
:104DB000B5FB814633683A68E168A068FFF7AEFB4F
:104DC000071C00230793069305930493364C06AB08
:104DD000039307AB0293354B0193354B0093354B4F
:104DE000220049464046FFF7E5FB2200203204AB93
:104DF000039305AB0293304B0193304B0093304B40
:104E0000391C5046FFF7D6FB1C3C0F23E356002B02
:104E100025DB079807F086FA28602A4BDB7C5BB21B
:104E2000002B23DB069807F07DFA6860254BDB7DBD
:104E30005BB2002B21DB059807F074FAA860214BC8
:104E4000DB7E5BB2002B1FDB049807F06BFAE86097
:104E500009B0F0BCBB46B246A946A046F0BD0799D2
:104E6000194807F0C4F907F05DFAD5E70699164826
:104E700007F0BDF907F056FAD7E70599124807F091
:104E8000B6F907F04FFAD9E704990F4807F0AFF9E0
:104E900007F048FADBE7C046DC210020D8210020DB
:104EA000E4210020E02100206C18002028200020B0
:104EB0005C1500207C150020D82000209C150020C7
:104EC000BC1500205018002000F07F450023044A44
:104ED0001370044A1370044A1370044A1370704725
:104EE000A8200020B0200020882100209021002050
:104EF00010B5E1200004FCF7C8FAFFF7DFFC0A4C0C
:104F000020220021200007F095FB200020302022E5
:104F1000002107F08FFB0023044A1370044A13702A
:104F2000044B01221A7010BDD4190020D830002083
:104F3000DA300020D930002010B50B4C20600B482F
:104F400001600B490A600B4C2360FFF753FCFFF72D
:104F500085FC23685A7830231340302B00D010BDD5
:104F6000FFF7C6FFFBE7C046841D0020881D002018
:104F7000B01A0020D01A002010B5084B00221A7079
:104F8000FFF758FCFFF76AFC054AE2235B00D05CA0
:104F900001214942FCF77BFA10BDC046D930002000
:104FA0005018002010B50A4B00221A70FFF742FC7F
:104FB000FCF724F9C82003F083FDFFF74FFC054AF6
:104FC000E2235B00D05C01214942FCF760FA10BD8E
:104FD000D93000205018002010B5024B1868FFF798
:104FE00043FE10BD841D002010B5124B1B78002B12
:104FF0000CD1114B1868FFF761FD0E4B01221A709E
:105000000E4B1B689B789B0711D410BD0A4B186888
:10501000FFF776FC0028F3D0094B1B78002BEFD16B
:10502000074B01221A700748FCF72FFAE8E7FFF751
:10503000B9FFEAE7DA300020841D0020D01A0020F2
:10504000D83000200080008030B55368C51A802415
:105050002401A04209D000241457002C0BD1002DAC
:1050600006DD01231370086000E00C60506030BD65
:1050700001235B42F6E7002C04DD8342F6DA086088
:105080005060F3E7002C01DB0860EFE78342EDDDC1
:1050900008605060EAE7000010B503000A00034909
:1050A00008681900FFF776FD10BDC046841D00207A
:1050B00010B503000A00034908681900FFF714FD42
:1050C00010BDC046841D0020F0B5DE4657464E4652
:1050D0004546E0B585B004000D0080231B019B46CA
:1050E0001A0041680068FFF719FA81465B465A4684
:1050F000E168A068FFF712FA8046824EF1235B0058
:10510000F75A5B46D81B07F0EBF88246F3235B00A7
:10511000F05A5B46181A07F0E3F88346F2235B0067
:10512000F05A80231B019C46604407F0D9F8514691
:1051300007F067F80090F4235B00F05A80231B010E
:105140009C46604407F0CCF8594607F05AF80190A5
:10515000380007F0C5F8061C494607F0AFF80028EC
:105160001AD080231B012B606B60664AF3235B001F
:10517000D05A07F0B5F8071C414607F09FF8002801
:1051800064D080231B01AB60EB6005B0F0BCBB4674
:10519000B246A946A046F0BD311C484607F027F8A4
:1051A000824680221201130061682068FFF77EF9B1
:1051B00000260296039603AA02A9FFF7DBF95146DF
:1051C000009807F034F8071C311C07F069F8002834
:1051D00009D18A21C905381C07F078F8002803D0C6
:1051E0008A27FF0500E000270299381C07F01FF806
:1051F000061C0290391C039807F019F803908A21C5
:10520000C905301C06F0F8FF07F06AF907F08AF8C4
:10521000002805DB80235B01984202DB3A4800E06E
:10522000002028608A21C905039806F0E5FF07F0F1
:1052300057F907F077F8002805DB80235B019842D7
:1052400002DB314800E0002068608EE7391C4046F0
:1052500006F0CDFF804680221201E168A0681300AD
:10526000FFF724F900270297039703AA02A9FFF783
:1052700081F94146019806F0DAFF041C391C07F059
:105280000FF8002809D18A21C905201C07F01EF853
:10529000002803D08A24E40500E000240299201CA1
:1052A00006F0C5FF061C02900399201C06F0BFFF04
:1052B000041C03908A21C905301C06F09DFF07F0ED
:1052C0000FF907F02FF8031E05DB802252019042F0
:1052D00002DB0D4B00E00023AB608A21C905201CD6
:1052E00006F08AFF07F0FCF807F01CF8002805DB41
:1052F00080235B01984202DB034800E00020E86065
:1053000043E7C04650180020FF0F000070B50400AE
:105310001D4AC821FCF70BF9002800D170BD1B4BBA
:105320001868FBF709F91A4B1B78002B02D0FFF71E
:105330005BFEF3E7174E154B18683100FFF712FDBF
:10534000154D2A6831002000FEF724FF134C286811
:105350002100FFF7B9FE124D124A29682068FFF7B5
:1053600073FE29680831104AA068FFF76DFE2B68AC
:10537000191D0E4A6068FFF767FE29680C31E06866
:105380000B4AFFF761FEC9E75C2D0020841D002059
:10539000D9300020842E0020B01A0020642700207D
:1053A000881D0020A820002088210020B020002097
:1053B0009021002010B5114AF6235B00D05A002836
:1053C0000AD0023BD35AC01A06F08AFF011C0C48CF
:1053D00006F017FF0B4B1860084AF8235B00D05A01
:1053E00000280AD0023BD35AC01A06F079FF011CEC
:1053F000034806F006FF044B186010BD501800204B
:1054000000F07F45DC150020E015002070B5040099
:105410000D00FA212B4A8901FCF789F800280CD0ED
:10542000AB780422110019401A420FD0264B1B788A
:10543000002B0BD1244B033A1A70244B1B78002B02
:1054400021D1224B1B78002B2BD070BD0029F4D129
:105450001D4B1B78012BF0D11D4A137801214B40C5
:10546000DBB21370184A00211170002B05D0FF2009
:1054700018310006FCF708F8DFE7FF2018210004C8
:10548000FCF702F8D9E7AA781207D20F114B12499C
:105490002000FCF75FF80028D3D00C4B00221A70D4
:1054A000D3E7AA78D20801235A4001231A400B4BB4
:1054B0000B492000FCF74EF80028C6D0FBF78AFA0B
:1054C000C3E7C0467C2D0020F4300020E415002006
:1054D000F5300020942D0020A08601008C2D0020A6
:1054E000C0C62D00014B18787047C046F53000202B
:1054F000F8B5DE4657464E464546E0B504000D0079
:10550000CE4B21221A70086806F0EAFECC4906F05C
:105510008EFECC4906F070FE8146686806F0E0FE1B
:10552000C74906F084FEC74906F066FE8046A868B3
:1055300006F0D6FEC24906F07AFEC24906F05CFECD
:10554000071CE86806F0CCFEBD4906F070FEBD49B8
:1055500006F052FE061C2278D206D20FBA4B012169
:105560008C461978604681430A431A702278920665
:10557000D20F520018780221884302431A70227811
:105580005206D20F92001D78042085432A431A70D8
:105590002278D209D20092461A7806318B468A4385
:1055A00055462A431A706278D206D50F29005D78D5
:1055B000624695432A000D0015435D70627892079C
:1055C000D20FD2005D7859468D432A435A706278D3
:1055D0001207D20F92005D7885432A435A7065788E
:1055E0006D07ED0F6800D2B206398A4302435A7044
:1055F0000021484606F054FE00280AD19349484647
:1056000006F064FE002818D1484606F0BDFEC0B280
:1056100000E000208C4B98700021404606F040FED0
:1056200000280CD18949404606F050FE00281AD1C6
:10563000404606F0A9FEC0B202E0FF20EAE70020E3
:10564000814BD8700021381C06F02AFE00280CD1AE
:105650007E49381C06F03AFE00281AD1381C06F0A4
:1056600093FEC0B202E0FF20EAE70020764B1871FB
:105670000021301C06F014FE00280CD17349301CA8
:1056800006F024FE002842D1301C06F07DFEC0B298
:1056900002E0FF20EAE700206B4B58712278920766
:1056A000D20F92011978402081430A431A70227860
:1056B000D207110E18787F2202400A431A7022780E
:1056C0005207D20F12011978102081430A431A7031
:1056D00022781207D20F52011978103081430A4301
:1056E0001A705B4ABC235B00D35C032B00D1E6E05D
:1056F0000FD8012B00D194E0022B50D16278D30750
:1057000000D4C0E05249BD235B00CB5CBCE0FF206D
:10571000C2E7042B43D16378DB07DB0F4A491D4303
:105720006D004B78022293431D434D7063789B07B5
:10573000DB0FDB00EAB20820824313434B7063782F
:105740001B07DB0F9B004A780438824313434B70DE
:10575000E378207900021843627912041043A37998
:105760001B0603431B11DBB28B716278920700D5D5
:10577000FF2335488371E379217A09021943627A5C
:1057800012041143A37A1B060B431B11DBB2C37136
:105790006278120700D5FF232B4AD37125E0637886
:1057A0009B070CD4E378217909021943627912042A
:1057B0001143A3791B060B431B11DBB200E0FF234F
:1057C000214A937163781B070CD4E379217A09028B
:1057D0001943627A12041143A37A1B060B431B116F
:1057E000DBB200E0FF23184AD3711A4B1B78002B61
:1057F00000D0A0E0114B14225A70103A9A72DA7459
:105800001A77144B033A1A7025220C490020FCF732
:1058100091FDFFF75BFBF0BCBB46B246A946A04634
:10582000F8BD6278D30704D50949BD235B00CB5C82
:1058300000E0002392070FD4DBB20EE078280020AE
:1058400082E2473D0000E041D428002000007F4371
:1058500050180020E2300020FF233A488371E3799A
:10586000217A09021943627A12041143A37A1B06B2
:105870000B431B11DBB2C3716278120700D5FF2303
:10588000304AD371B1E70023120701D4DBB200E044
:10589000FF232C48C371E378217909021943627907
:1058A00012041143A3791B060B431B11DBB2837156
:1058B0006278920700D5FF23224A937195E7E37837
:1058C000217909021943627912041143A3791B0655
:1058D0000B431B11DBB21B4A93716278920700D510
:1058E000FF2318488371E379217A09021943627A08
:1058F00012041143A37A1B060B431B11DBB2C371C5
:105900006278120700D5FF230E4AD3716378DB0754
:1059100000D46AE71300127801210A431A70FF22AB
:105920009A71DA715A7808210A435A70D2B2042166
:105930000A435A7059E7044808220249023006F027
:105940007FFE61E7D428002078280020F0B5DE46ED
:1059500057464E464546E0B591B006008B46904608
:105960001D001A9C1022002108A806F063FE802367
:105970005B020893F8235B0209938023DB020A93FE
:10598000C0231B030A93102208A904A806F058FE9E
:1059900042461832059B0393494B03990B404146FD
:1059A000C9010B43120313430593079A0392D200D4
:1059B000D2088021C9050A430792424A13400B438B
:1059C00005930CAB9946102204A9180006F038FE86
:1059D00022004B4683CB83C21B681360280001F072
:1059E00027FF394B9E4266D00721280001F0D6FEE2
:1059F0000023009301332A005946300007F086FE49
:105A0000324BE2681340EA031343E360304A134029
:105A10002B43802252031343E3602E4B62681340F2
:105A20002A0613436360052003F010FE2A4905F09F
:105A3000EBF806F050FC824606F0A6FC83B29946CD
:105A4000002B3AD0180006F046FC011C504606F028
:105A5000CEFB8721C90506F0EAFB06F095FCC0B233
:105A600000024B461B04184320601C4BE2681340A5
:105A7000AD021D43E5601A4AA3681A4081231B0446
:105A80001343A360174A1340174A1343A36023002C
:105A900042465946300007F08BFE326801235946D2
:105AA0008B409A431343336011B0F0BCBB46B246FF
:105AB000A946A046F0BD062197E70020D0E7C046E2
:105AC0007F00FEFFFFFFFF9F00002050FF7FF0FFE1
:105AD000E0FF0FFCFFFFFFE000093D00FF83FFFF39
